{
  "contractName": "Consensus",
  "abi": [
    {
      "constant": true,
      "inputs": [
        {
          "internalType": "uint256",
          "name": "",
          "type": "uint256"
        }
      ],
      "name": "publicAddresses",
      "outputs": [
        {
          "internalType": "string",
          "name": "name",
          "type": "string"
        },
        {
          "internalType": "bool",
          "name": "active",
          "type": "bool"
        },
        {
          "internalType": "address",
          "name": "medicalInstituteAddress",
          "type": "address"
        },
        {
          "internalType": "uint256",
          "name": "lastModified",
          "type": "uint256"
        }
      ],
      "payable": false,
      "stateMutability": "view",
      "type": "function"
    },
    {
      "constant": true,
      "inputs": [],
      "name": "getType",
      "outputs": [
        {
          "internalType": "uint256",
          "name": "",
          "type": "uint256"
        }
      ],
      "payable": false,
      "stateMutability": "view",
      "type": "function"
    },
    {
      "constant": true,
      "inputs": [],
      "name": "getNoOfInstitutes",
      "outputs": [
        {
          "internalType": "uint256",
          "name": "",
          "type": "uint256"
        }
      ],
      "payable": false,
      "stateMutability": "view",
      "type": "function"
    },
    {
      "constant": false,
      "inputs": [
        {
          "internalType": "string",
          "name": "name",
          "type": "string"
        },
        {
          "internalType": "address",
          "name": "publicAddress",
          "type": "address"
        }
      ],
      "name": "registerMedicalInstitute",
      "outputs": [
        {
          "internalType": "uint256",
          "name": "id",
          "type": "uint256"
        }
      ],
      "payable": false,
      "stateMutability": "nonpayable",
      "type": "function"
    },
    {
      "constant": false,
      "inputs": [
        {
          "internalType": "uint256",
          "name": "time",
          "type": "uint256"
        },
        {
          "internalType": "uint256",
          "name": "id",
          "type": "uint256"
        }
      ],
      "name": "changeLastModified",
      "outputs": [],
      "payable": false,
      "stateMutability": "nonpayable",
      "type": "function"
    },
    {
      "constant": true,
      "inputs": [
        {
          "internalType": "uint256",
          "name": "i",
          "type": "uint256"
        }
      ],
      "name": "getAllInstitutes",
      "outputs": [
        {
          "components": [
            {
              "internalType": "string",
              "name": "name",
              "type": "string"
            },
            {
              "internalType": "bool",
              "name": "active",
              "type": "bool"
            },
            {
              "internalType": "address",
              "name": "medicalInstituteAddress",
              "type": "address"
            },
            {
              "internalType": "uint256",
              "name": "lastModified",
              "type": "uint256"
            }
          ],
          "internalType": "struct Consensus.instituteAddress",
          "name": "",
          "type": "tuple"
        }
      ],
      "payable": false,
      "stateMutability": "view",
      "type": "function"
    },
    {
      "constant": true,
      "inputs": [
        {
          "internalType": "uint256",
          "name": "num1",
          "type": "uint256"
        },
        {
          "internalType": "uint256",
          "name": "num2",
          "type": "uint256"
        }
      ],
      "name": "verify",
      "outputs": [
        {
          "internalType": "bool",
          "name": "",
          "type": "bool"
        }
      ],
      "payable": false,
      "stateMutability": "pure",
      "type": "function"
    },
    {
      "constant": false,
      "inputs": [
        {
          "internalType": "uint256",
          "name": "id",
          "type": "uint256"
        }
      ],
      "name": "deactivateInstitute",
      "outputs": [],
      "payable": false,
      "stateMutability": "nonpayable",
      "type": "function"
    }
  ],
  "bytecode": "0x60806040526002600055600060025534801561001a57600080fd5b50610ac78061002a6000396000f3fe608060405234801561001057600080fd5b50600436106100885760003560e01c8063a14453c61161005b578063a14453c614610127578063aeb1829314610157578063e209c7a314610173578063ee0a7a08146101a657610088565b8063121213681461008d57806315dae03e146100bd5780634039b2cb146100db57806341161b10146100f7575b600080fd5b6100a760048036036100a291908101906106fd565b6101c4565b6040516100b491906108f8565b60405180910390f35b6100c561030e565b6040516100d2919061091a565b60405180910390f35b6100f560048036036100f09190810190610726565b610317565b005b610111600480360361010c9190810190610726565b610336565b60405161011e9190610891565b60405180910390f35b610141600480360361013c91908101906106a9565b610354565b60405161014e919061091a565b60405180910390f35b610171600480360361016c91908101906106fd565b610415565b005b61018d600480360361018891908101906106fd565b610447565b60405161019d94939291906108ac565b60405180910390f35b6101ae61053c565b6040516101bb919061091a565b60405180910390f35b6101cc610546565b60016000838152602001908152602001600020604051806080016040529081600082018054600181600116156101000203166002900480601f0160208091040260200160405190810160405280929190818152602001828054600181600116156101000203166002900480156102835780601f1061025857610100808354040283529160200191610283565b820191906000526020600020905b81548152906001019060200180831161026657829003601f168201915b505050505081526020016001820160009054906101000a900460ff161515151581526020016001820160019054906101000a900473ffffffffffffffffffffffffffffffffffffffff1673ffffffffffffffffffffffffffffffffffffffff1673ffffffffffffffffffffffffffffffffffffffff1681526020016002820154815250509050919050565b60008054905090565b8160016000838152602001908152602001600020600201819055505050565b600081831415610349576001905061034e565b600090505b92915050565b6000806002549050836001600060025481526020019081526020016000206000019080519060200190610388929190610586565b508260016000600254815260200190815260200160002060010160016101000a81548173ffffffffffffffffffffffffffffffffffffffff021916908373ffffffffffffffffffffffffffffffffffffffff160217905550426001600060026000815480929190600101919050558152602001908152602001600020600201819055508091505092915050565b60006001600083815260200190815260200160002060010160006101000a81548160ff02191690831515021790555050565b6001602052806000526040600020600091509050806000018054600181600116156101000203166002900480601f0160208091040260200160405190810160405280929190818152602001828054600181600116156101000203166002900480156104f35780601f106104c8576101008083540402835291602001916104f3565b820191906000526020600020905b8154815290600101906020018083116104d657829003601f168201915b5050505050908060010160009054906101000a900460ff16908060010160019054906101000a900473ffffffffffffffffffffffffffffffffffffffff16908060020154905084565b6000600254905090565b604051806080016040528060608152602001600015158152602001600073ffffffffffffffffffffffffffffffffffffffff168152602001600081525090565b828054600181600116156101000203166002900490600052602060002090601f016020900481019282601f106105c757805160ff19168380011785556105f5565b828001600101855582156105f5579182015b828111156105f45782518255916020019190600101906105d9565b5b5090506106029190610606565b5090565b61062891905b8082111561062457600081600090555060010161060c565b5090565b90565b60008135905061063a81610a56565b92915050565b600082601f83011261065157600080fd5b813561066461065f82610962565b610935565b9150808252602083016020830185838301111561068057600080fd5b61068b838284610a03565b50505092915050565b6000813590506106a381610a6d565b92915050565b600080604083850312156106bc57600080fd5b600083013567ffffffffffffffff8111156106d657600080fd5b6106e285828601610640565b92505060206106f38582860161062b565b9150509250929050565b60006020828403121561070f57600080fd5b600061071d84828501610694565b91505092915050565b6000806040838503121561073957600080fd5b600061074785828601610694565b925050602061075885828601610694565b9150509250929050565b61076b816109bb565b82525050565b61077a816109bb565b82525050565b610789816109cd565b82525050565b610798816109cd565b82525050565b60006107a98261098e565b6107b38185610999565b93506107c3818560208601610a12565b6107cc81610a45565b840191505092915050565b60006107e28261098e565b6107ec81856109aa565b93506107fc818560208601610a12565b61080581610a45565b840191505092915050565b6000608083016000830151848203600086015261082d828261079e565b91505060208301516108426020860182610780565b5060408301516108556040860182610762565b5060608301516108686060860182610873565b508091505092915050565b61087c816109f9565b82525050565b61088b816109f9565b82525050565b60006020820190506108a6600083018461078f565b92915050565b600060808201905081810360008301526108c681876107d7565b90506108d5602083018661078f565b6108e26040830185610771565b6108ef6060830184610882565b95945050505050565b600060208201905081810360008301526109128184610810565b905092915050565b600060208201905061092f6000830184610882565b92915050565b6000604051905081810181811067ffffffffffffffff8211171561095857600080fd5b8060405250919050565b600067ffffffffffffffff82111561097957600080fd5b601f19601f8301169050602081019050919050565b600081519050919050565b600082825260208201905092915050565b600082825260208201905092915050565b60006109c6826109d9565b9050919050565b60008115159050919050565b600073ffffffffffffffffffffffffffffffffffffffff82169050919050565b6000819050919050565b82818337600083830152505050565b60005b83811015610a30578082015181840152602081019050610a15565b83811115610a3f576000848401525b50505050565b6000601f19601f8301169050919050565b610a5f816109bb565b8114610a6a57600080fd5b50565b610a76816109f9565b8114610a8157600080fd5b5056fea365627a7a72315820862ef133fe5202b6cb1238a7fa24bcb762e20c3c51330a382415fa56e2174dd56c6578706572696d656e74616cf564736f6c63430005100040",
  "source": "pragma solidity >=0.4.25;\npragma experimental ABIEncoderV2;\n\n\ncontract Patient {\n    // Personal Details - Minimalistic details required for creating block\n\n    string public name;\n    string public identificationProof;\n    string public addressProof;\n    uint256 public age;\n    uint256 public heightInCms;\n    uint256 public weightInKgs;\n    address public publicAddress;\n    uint256 public noOfRecords = 0;\n    uint256 public typeOfRec = 0;\n\n    // Store structure of EHR as a mapping\n\n    struct EHR {\n        string fileLocation;\n        uint256 byDoctorID;\n        uint256 count;\n        uint256 permissionedDoctors;\n    }\n\n    mapping(uint256 => EHR) public healthRecords;\n\n    // Functions in Patient\n\n    constructor(\n        string memory n,\n        string memory idProof,\n        string memory addrProof,\n        uint256 a,\n        uint256 h,\n        uint256 w\n    ) public {\n        name = n;\n        identificationProof = idProof;\n        addressProof = addrProof;\n        age = a;\n        heightInCms = h;\n        weightInKgs = w;\n        publicAddress = address(this);\n    }\n\n    // Get Type\n\n    function getType() public view returns (uint256) {\n        return typeOfRec;\n    }\n\n    // Get location of file\n\n    function getFileLocation(uint256 id)\n        external\n        view\n        returns (string memory fileLoc)\n    {\n        return healthRecords[id].fileLocation;\n    }\n\n    // Check if doctor has the required permissions\n\n    function checkForPermissions(uint256 id, uint256 doctorID)\n        external\n        view\n        returns (bool ans)\n    {\n        if (doctorID == healthRecords[id].permissionedDoctors) {\n            return true;\n        }\n        return false;\n    }\n\n    function getRecordCount() public view returns (uint256) {\n        return noOfRecords;\n    }\n\n    // Get no of records in that EHR\n\n    function getEHRRecordCount(uint256 EHRId) public view returns (uint256) {\n        return healthRecords[EHRId].count;\n    }\n\n    // Create a new health record\n\n    function createNewRecord(uint256 doctorID, string memory fileLocation)\n        public\n    {\n        healthRecords[noOfRecords].byDoctorID = doctorID;\n        healthRecords[noOfRecords].count = 0;\n        healthRecords[noOfRecords].permissionedDoctors = doctorID;\n        healthRecords[noOfRecords++].fileLocation = fileLocation;\n    }\n\n    // Fetching minimalistic details of Patient\n\n    function fetchDetailsOfPatient()\n        public\n        view\n        returns (\n            string memory,\n            string memory,\n            string memory,\n            uint256,\n            uint256,\n            uint256\n        )\n    {\n        return (\n            name,\n            identificationProof,\n            addressProof,\n            age,\n            heightInCms,\n            weightInKgs\n        );\n    }\n\n    // Fetching details of EHR given ID of EHR\n\n    function fetchDetailsOfEHR(uint256 ID)\n        public\n        view\n        returns (string memory, uint256, uint256, uint256)\n    {\n        return (\n            healthRecords[ID].fileLocation,\n            healthRecords[ID].byDoctorID,\n            healthRecords[ID].count,\n            healthRecords[ID].permissionedDoctors\n        );\n    }\n\n    // Add new doctor in permission field\n\n    function addDoctorToEHR(uint256 doctorID, uint256 EHRID) public {\n        healthRecords[EHRID].permissionedDoctors = doctorID;\n        healthRecords[EHRID].count++;\n    }\n\n    // Verification function\n\n    function verifyDoctor() public view returns (uint256) {\n        return now;\n    }\n\n    // Revoke Permissions of Doctor\n\n    function revokePermissionOfDoctorOnEHR(uint256 EHRId, uint256 doctorID)\n        public\n    {\n        if (healthRecords[EHRId].permissionedDoctors == doctorID) {\n            healthRecords[EHRId].permissionedDoctors = 0;\n        }\n    }\n\n    // Delete EHR details\n\n    function deleteEHRDetails(uint EHRID) public {\n        healthRecords[EHRID].fileLocation = \"\";\n        healthRecords[EHRID].byDoctorID = 0;\n        healthRecords[EHRID].count = 0;\n        delete healthRecords[EHRID].permissionedDoctors;\n    }\n}\n\n\ncontract Consensus {\n    uint256 typeOfRec = 2;\n\n    struct instituteAddress {\n        string name;\n        bool active;\n        address medicalInstituteAddress;\n        uint256 lastModified;\n    }\n\n    // Get Type\n\n    function getType() public view returns (uint256) {\n        return typeOfRec;\n    }\n\n    // Get no of institutes\n\n    function getNoOfInstitutes() public view returns (uint) {\n        return noOfAlloted;\n    }\n\n    // Keeps an array of all medical institutes and their last modified flag\n\n    mapping(uint256 => instituteAddress) public publicAddresses;\n    uint256 noOfAlloted = 0;\n\n    // Methods\n\n    // Registration of medical institute\n\n    function registerMedicalInstitute(string memory name, address publicAddress)\n        public\n        returns (uint256 id)\n    {\n        uint256 num = noOfAlloted;\n        publicAddresses[noOfAlloted].name = name;\n        publicAddresses[noOfAlloted].medicalInstituteAddress = publicAddress;\n        publicAddresses[noOfAlloted++].lastModified = now;\n        return num;\n    }\n\n    // Changes last modified flag of Medical Institute\n\n    function changeLastModified(uint256 time, uint256 id) public {\n        publicAddresses[id].lastModified = time;\n    }\n\n    function getAllInstitutes(uint i) public view returns (instituteAddress memory) {\n        return publicAddresses[i];\n    }\n\n    // Verification of OTP\n\n    function verify(uint256 num1, uint256 num2) public pure returns (bool) {\n        if (num1 == num2) {\n            return true;\n        }\n        return false;\n    }\n\n    // Deactivate Institute\n\n    function deactivateInstitute(uint id) public {\n        publicAddresses[id].active = false;\n    }\n\n    \n}\n\n\ncontract MedicalInstitute {\n    Consensus consensusAddress;\n    bool active = true;\n    address conAddress;\n    uint256 typeOfRec = 1;\n    uint256 public myID;\n    string public myName;\n    uint256 noOfDocs = 1;\n\n    struct Doctor {\n        string name;\n        bool active;\n        string specialization;\n    }\n\n    mapping(uint256 => Doctor) public Doctors;\n\n    // Get type\n\n    function getType() public view returns (uint256) {\n        return typeOfRec;\n    }\n\n    // Constructor to get ID of medical institute\n\n    constructor(address cAddress, string memory n) public {\n        conAddress = cAddress;\n        consensusAddress = Consensus(cAddress);\n        myName = n;\n        myID = consensusAddress.registerMedicalInstitute(n, address(this));\n    }\n\n    // Register a doctor\n\n    function registerDoctor(string memory n, string memory spec)\n        public\n        returns (uint256)\n    {\n        uint256 num = noOfDocs;\n        Doctors[noOfDocs].name = n;\n        Doctors[noOfDocs].active = true;\n        Doctors[noOfDocs++].specialization = spec;\n        return num;\n    }\n\n    // Get Details of Medical Institute\n    function getDetails()\n        public\n        view\n        returns (uint256, string memory, address)\n    {\n        return (myID, myName, conAddress);\n    }\n\n    function getNoOfDocs() public view returns (uint256) {\n        return noOfDocs;\n    }\n\n    // Get details of a doctor\n\n    function getDetailsOfDoctor(uint256 _ID)\n        public\n        view\n        returns (string memory, string memory)\n    {\n        if(Doctors[_ID].active) {\n        return (Doctors[_ID].name, Doctors[_ID].specialization);\n        }\n        return (\"\", \"\");\n    }\n\n    // Check if doctor is active\n\n    function checkValidityOfDoctor(uint ID) public view returns (bool) {\n        return Doctors[ID].active;\n    }\n\n    // Updating Consensus after some activity\n\n    function updateLastModified() public {\n        consensusAddress.changeLastModified(now, myID);\n    }\n\n    function addPermissions(\n        address patientAddress,\n        uint256 EHRId,\n        uint256 doctorID\n    ) public {\n        Patient p = Patient(patientAddress);\n        p.addDoctorToEHR(doctorID, EHRId);\n    }\n\n    function getFileLocation(uint256 EHRId, address patientAddress)\n        public\n        view\n        returns (string memory)\n    {\n        Patient p = Patient(patientAddress);\n        return p.getFileLocation(EHRId);\n    }\n\n    function requestForAccess() public view returns (bool) {\n        uint256 OTP = now;\n        bool res = consensusAddress.verify(OTP, OTP);\n        return res;\n    }\n\n    // Revoke Doctor\n\n    function revokeDoctor(uint docID) public {\n        Doctors[docID].active = false;\n    }\n\n    // Revoke Medical Institute\n\n    function revokeMedicalInst() public  {\n        active = false;\n    }\n\n    // Check if medical institute is active\n\n    function isActive() public view returns (bool) {\n        return active;\n    }\n\n    // Function to get ID of Doctor\n\n    function getIDOfDoctor(string memory name) public view returns (uint) {\n        for(uint i = 0;i < noOfDocs;i++) {\n            if(keccak256(abi.encodePacked((Doctors[i].name))) == keccak256(abi.encodePacked((name)))) {\n                return i;\n            }\n        }\n        return 0;\n    }\n}\n",
  "sourcePath": "/home/badminton-bhivpa/Education/EDI/workspace/contracts/TAAR.sol",
  "compiler": {
    "name": "solc",
    "version": "0.5.16+commit.9c3226ce.Emscripten.clang"
  },
  "schemaVersion": "3.1.0",
  "updatedAt": "2020-04-28T11:55:27.434Z",
  "networkType": "ethereum",
  "devdoc": {
    "methods": {}
  },
  "userdoc": {
    "methods": {}
  }
}