{
  "contractName": "MedicalInstitute",
  "abi": [
    {
      "inputs": [
        {
          "internalType": "address",
          "name": "cAddress",
          "type": "address"
        },
        {
          "internalType": "string",
          "name": "n",
          "type": "string"
        }
      ],
      "payable": false,
      "stateMutability": "nonpayable",
      "type": "constructor"
    },
    {
      "constant": true,
      "inputs": [
        {
          "internalType": "uint256",
          "name": "",
          "type": "uint256"
        }
      ],
      "name": "Doctors",
      "outputs": [
        {
          "internalType": "string",
          "name": "name",
          "type": "string"
        },
        {
          "internalType": "bool",
          "name": "active",
          "type": "bool"
        },
        {
          "internalType": "string",
          "name": "specialization",
          "type": "string"
        }
      ],
      "payable": false,
      "stateMutability": "view",
      "type": "function"
    },
    {
      "constant": true,
      "inputs": [],
      "name": "myID",
      "outputs": [
        {
          "internalType": "uint256",
          "name": "",
          "type": "uint256"
        }
      ],
      "payable": false,
      "stateMutability": "view",
      "type": "function"
    },
    {
      "constant": true,
      "inputs": [],
      "name": "myName",
      "outputs": [
        {
          "internalType": "string",
          "name": "",
          "type": "string"
        }
      ],
      "payable": false,
      "stateMutability": "view",
      "type": "function"
    },
    {
      "constant": true,
      "inputs": [],
      "name": "getType",
      "outputs": [
        {
          "internalType": "uint256",
          "name": "",
          "type": "uint256"
        }
      ],
      "payable": false,
      "stateMutability": "view",
      "type": "function"
    },
    {
      "constant": false,
      "inputs": [
        {
          "internalType": "string",
          "name": "n",
          "type": "string"
        },
        {
          "internalType": "string",
          "name": "spec",
          "type": "string"
        }
      ],
      "name": "registerDoctor",
      "outputs": [
        {
          "internalType": "uint256",
          "name": "",
          "type": "uint256"
        }
      ],
      "payable": false,
      "stateMutability": "nonpayable",
      "type": "function"
    },
    {
      "constant": true,
      "inputs": [],
      "name": "getDetails",
      "outputs": [
        {
          "internalType": "uint256",
          "name": "",
          "type": "uint256"
        },
        {
          "internalType": "string",
          "name": "",
          "type": "string"
        },
        {
          "internalType": "address",
          "name": "",
          "type": "address"
        }
      ],
      "payable": false,
      "stateMutability": "view",
      "type": "function"
    },
    {
      "constant": true,
      "inputs": [],
      "name": "getNoOfDocs",
      "outputs": [
        {
          "internalType": "uint256",
          "name": "",
          "type": "uint256"
        }
      ],
      "payable": false,
      "stateMutability": "view",
      "type": "function"
    },
    {
      "constant": true,
      "inputs": [
        {
          "internalType": "uint256",
          "name": "_ID",
          "type": "uint256"
        }
      ],
      "name": "getDetailsOfDoctor",
      "outputs": [
        {
          "internalType": "string",
          "name": "",
          "type": "string"
        },
        {
          "internalType": "string",
          "name": "",
          "type": "string"
        }
      ],
      "payable": false,
      "stateMutability": "view",
      "type": "function"
    },
    {
      "constant": true,
      "inputs": [
        {
          "internalType": "uint256",
          "name": "ID",
          "type": "uint256"
        }
      ],
      "name": "checkValidityOfDoctor",
      "outputs": [
        {
          "internalType": "bool",
          "name": "",
          "type": "bool"
        }
      ],
      "payable": false,
      "stateMutability": "view",
      "type": "function"
    },
    {
      "constant": false,
      "inputs": [],
      "name": "updateLastModified",
      "outputs": [],
      "payable": false,
      "stateMutability": "nonpayable",
      "type": "function"
    },
    {
      "constant": false,
      "inputs": [
        {
          "internalType": "address",
          "name": "patientAddress",
          "type": "address"
        },
        {
          "internalType": "uint256",
          "name": "EHRId",
          "type": "uint256"
        },
        {
          "internalType": "uint256",
          "name": "doctorID",
          "type": "uint256"
        }
      ],
      "name": "addPermissions",
      "outputs": [],
      "payable": false,
      "stateMutability": "nonpayable",
      "type": "function"
    },
    {
      "constant": true,
      "inputs": [
        {
          "internalType": "uint256",
          "name": "EHRId",
          "type": "uint256"
        },
        {
          "internalType": "address",
          "name": "patientAddress",
          "type": "address"
        }
      ],
      "name": "getFileLocation",
      "outputs": [
        {
          "internalType": "string",
          "name": "",
          "type": "string"
        }
      ],
      "payable": false,
      "stateMutability": "view",
      "type": "function"
    },
    {
      "constant": true,
      "inputs": [],
      "name": "requestForAccess",
      "outputs": [
        {
          "internalType": "bool",
          "name": "",
          "type": "bool"
        }
      ],
      "payable": false,
      "stateMutability": "view",
      "type": "function"
    },
    {
      "constant": false,
      "inputs": [
        {
          "internalType": "uint256",
          "name": "docID",
          "type": "uint256"
        }
      ],
      "name": "revokeDoctor",
      "outputs": [],
      "payable": false,
      "stateMutability": "nonpayable",
      "type": "function"
    },
    {
      "constant": false,
      "inputs": [],
      "name": "revokeMedicalInst",
      "outputs": [],
      "payable": false,
      "stateMutability": "nonpayable",
      "type": "function"
    },
    {
      "constant": true,
      "inputs": [],
      "name": "isActive",
      "outputs": [
        {
          "internalType": "bool",
          "name": "",
          "type": "bool"
        }
      ],
      "payable": false,
      "stateMutability": "view",
      "type": "function"
    },
    {
      "constant": true,
      "inputs": [
        {
          "internalType": "string",
          "name": "name",
          "type": "string"
        }
      ],
      "name": "getIDOfDoctor",
      "outputs": [
        {
          "internalType": "uint256",
          "name": "",
          "type": "uint256"
        }
      ],
      "payable": false,
      "stateMutability": "view",
      "type": "function"
    }
  ],
  "bytecode": "0x60806040526001600060146101000a81548160ff021916908315150217905550600160025560016005553480156200003657600080fd5b50604051620019883803806200198883398181016040526200005c9190810190620002f1565b81600160006101000a81548173ffffffffffffffffffffffffffffffffffffffff021916908373ffffffffffffffffffffffffffffffffffffffff160217905550816000806101000a81548173ffffffffffffffffffffffffffffffffffffffff021916908373ffffffffffffffffffffffffffffffffffffffff1602179055508060049080519060200190620000f5929190620001b8565b506000809054906101000a900473ffffffffffffffffffffffffffffffffffffffff1673ffffffffffffffffffffffffffffffffffffffff1663a14453c682306040518363ffffffff1660e01b815260040162000154929190620003c9565b602060405180830381600087803b1580156200016f57600080fd5b505af115801562000184573d6000803e3d6000fd5b505050506040513d601f19601f82011682018060405250620001aa91908101906200034b565b60038190555050506200052d565b828054600181600116156101000203166002900490600052602060002090601f016020900481019282601f10620001fb57805160ff19168380011785556200022c565b828001600101855582156200022c579182015b828111156200022b5782518255916020019190600101906200020e565b5b5090506200023b91906200023f565b5090565b6200026491905b808211156200026057600081600090555060010162000246565b5090565b90565b6000815190506200027881620004f9565b92915050565b600082601f8301126200029057600080fd5b8151620002a7620002a1826200042b565b620003fd565b91508082526020830160208301858383011115620002c457600080fd5b620002d1838284620004b2565b50505092915050565b600081519050620002eb8162000513565b92915050565b600080604083850312156200030557600080fd5b6000620003158582860162000267565b925050602083015167ffffffffffffffff8111156200033357600080fd5b62000341858286016200027e565b9150509250929050565b6000602082840312156200035e57600080fd5b60006200036e84828501620002da565b91505092915050565b620003828162000474565b82525050565b6000620003958262000458565b620003a1818562000463565b9350620003b3818560208601620004b2565b620003be81620004e8565b840191505092915050565b60006040820190508181036000830152620003e5818562000388565b9050620003f6602083018462000377565b9392505050565b6000604051905081810181811067ffffffffffffffff821117156200042157600080fd5b8060405250919050565b600067ffffffffffffffff8211156200044357600080fd5b601f19601f8301169050602081019050919050565b600081519050919050565b600082825260208201905092915050565b6000620004818262000488565b9050919050565b600073ffffffffffffffffffffffffffffffffffffffff82169050919050565b6000819050919050565b60005b83811015620004d2578082015181840152602081019050620004b5565b83811115620004e2576000848401525b50505050565b6000601f19601f8301169050919050565b620005048162000474565b81146200051057600080fd5b50565b6200051e81620004a8565b81146200052a57600080fd5b50565b61144b806200053d6000396000f3fe608060405234801561001057600080fd5b506004361061010b5760003560e01c80637a9b55b7116100a2578063dca3b0c111610071578063dca3b0c114610297578063f39c6f58146102c7578063fa551a12146102f7578063fae2dd4b14610315578063fbbf93a0146103335761010b565b80637a9b55b714610221578063833b46bb1461023f578063bcb98cdb1461026f578063ca924060146102795761010b565b806327151672116100de5780632715167214610199578063285b04b0146101cb5780634048a5eb146101e75780636be88aee146102175761010b565b8063097461741461011057806315dae03e1461014157806321d49b121461015f57806322f3e2d41461017b575b600080fd5b61012a60048036036101259190810190610f3a565b610353565b60405161013892919061118a565b60405180910390f35b610149610516565b6040516101569190611206565b60405180910390f35b61017960048036036101749190810190610f3a565b610520565b005b610183610552565b604051610190919061112b565b60405180910390f35b6101b360048036036101ae9190810190610f3a565b610568565b6040516101c2939291906111c1565b60405180910390f35b6101e560048036036101e09190810190610dd4565b6106cf565b005b61020160048036036101fc9190810190610e4c565b610747565b60405161020e9190611206565b60405180910390f35b61021f6107e3565b005b6102296107ff565b6040516102369190611206565b60405180910390f35b61025960048036036102549190810190610ece565b610805565b6040516102669190611206565b60405180910390f35b6102776108b0565b005b610281610942565b60405161028e9190611206565b60405180910390f35b6102b160048036036102ac9190810190610f63565b61094c565b6040516102be9190611168565b60405180910390f35b6102e160048036036102dc9190810190610f3a565b6109ea565b6040516102ee919061112b565b60405180910390f35b6102ff610a17565b60405161030c919061112b565b60405180910390f35b61031d610ad5565b60405161032a9190611146565b60405180910390f35b61033b610b73565b60405161034a93929190611221565b60405180910390f35b6060806006600084815260200190815260200160002060010160009054906101000a900460ff16156104ec576006600084815260200190815260200160002060000160066000858152602001908152602001600020600201818054600181600116156101000203166002900480601f0160208091040260200160405190810160405280929190818152602001828054600181600116156101000203166002900480156104405780601f1061041557610100808354040283529160200191610440565b820191906000526020600020905b81548152906001019060200180831161042357829003601f168201915b50505050509150808054600181600116156101000203166002900480601f0160208091040260200160405190810160405280929190818152602001828054600181600116156101000203166002900480156104dc5780601f106104b1576101008083540402835291602001916104dc565b820191906000526020600020905b8154815290600101906020018083116104bf57829003601f168201915b5050505050905091509150610511565b6040518060200160405280600081525060405180602001604052806000815250915091505b915091565b6000600254905090565b60006006600083815260200190815260200160002060010160006101000a81548160ff02191690831515021790555050565b60008060149054906101000a900460ff16905090565b6006602052806000526040600020600091509050806000018054600181600116156101000203166002900480601f0160208091040260200160405190810160405280929190818152602001828054600181600116156101000203166002900480156106145780601f106105e957610100808354040283529160200191610614565b820191906000526020600020905b8154815290600101906020018083116105f757829003601f168201915b5050505050908060010160009054906101000a900460ff1690806002018054600181600116156101000203166002900480601f0160208091040260200160405190810160405280929190818152602001828054600181600116156101000203166002900480156106c55780601f1061069a576101008083540402835291602001916106c5565b820191906000526020600020905b8154815290600101906020018083116106a857829003601f168201915b5050505050905083565b60008390508073ffffffffffffffffffffffffffffffffffffffff1663c3f9c6c483856040518363ffffffff1660e01b815260040161070f92919061125f565b600060405180830381600087803b15801561072957600080fd5b505af115801561073d573d6000803e3d6000fd5b5050505050505050565b600080600090505b6005548110156107d8578260405160200161076a91906110fd565b60405160208183030381529060405280519060200120600660008381526020019081526020016000206000016040516020016107a69190611114565b6040516020818303038152906040528051906020012014156107cb57809150506107de565b808060010191505061074f565b50600090505b919050565b60008060146101000a81548160ff021916908315150217905550565b60035481565b6000806005549050836006600060055481526020019081526020016000206000019080519060200190610839929190610c48565b50600160066000600554815260200190815260200160002060010160006101000a81548160ff02191690831515021790555082600660006005600081548092919060010191905055815260200190815260200160002060020190805190602001906108a5929190610c48565b508091505092915050565b6000809054906101000a900473ffffffffffffffffffffffffffffffffffffffff1673ffffffffffffffffffffffffffffffffffffffff16634039b2cb426003546040518363ffffffff1660e01b815260040161090e92919061125f565b600060405180830381600087803b15801561092857600080fd5b505af115801561093c573d6000803e3d6000fd5b50505050565b6000600554905090565b606060008290508073ffffffffffffffffffffffffffffffffffffffff1663371c93b4856040518263ffffffff1660e01b815260040161098c9190611206565b60006040518083038186803b1580156109a457600080fd5b505afa1580156109b8573d6000803e3d6000fd5b505050506040513d6000823e3d601f19601f820116820180604052506109e19190810190610e8d565b91505092915050565b60006006600083815260200190815260200160002060010160009054906101000a900460ff169050919050565b60008042905060008060009054906101000a900473ffffffffffffffffffffffffffffffffffffffff1673ffffffffffffffffffffffffffffffffffffffff166341161b1083846040518363ffffffff1660e01b8152600401610a7b92919061125f565b60206040518083038186803b158015610a9357600080fd5b505afa158015610aa7573d6000803e3d6000fd5b505050506040513d601f19601f82011682018060405250610acb9190810190610e23565b9050809250505090565b60048054600181600116156101000203166002900480601f016020809104026020016040519081016040528092919081815260200182805460018160011615610100020316600290048015610b6b5780601f10610b4057610100808354040283529160200191610b6b565b820191906000526020600020905b815481529060010190602001808311610b4e57829003601f168201915b505050505081565b6000606060006003546004600160009054906101000a900473ffffffffffffffffffffffffffffffffffffffff16818054600181600116156101000203166002900480601f016020809104026020016040519081016040528092919081815260200182805460018160011615610100020316600290048015610c365780601f10610c0b57610100808354040283529160200191610c36565b820191906000526020600020905b815481529060010190602001808311610c1957829003601f168201915b50505050509150925092509250909192565b828054600181600116156101000203166002900490600052602060002090601f016020900481019282601f10610c8957805160ff1916838001178555610cb7565b82800160010185558215610cb7579182015b82811115610cb6578251825591602001919060010190610c9b565b5b509050610cc49190610cc8565b5090565b610cea91905b80821115610ce6576000816000905550600101610cce565b5090565b90565b600081359050610cfc816113c3565b92915050565b600081519050610d11816113da565b92915050565b600082601f830112610d2857600080fd5b8135610d3b610d36826112b5565b611288565b91508082526020830160208301858383011115610d5757600080fd5b610d62838284611370565b50505092915050565b600082601f830112610d7c57600080fd5b8151610d8f610d8a826112b5565b611288565b91508082526020830160208301858383011115610dab57600080fd5b610db683828461137f565b50505092915050565b600081359050610dce816113f1565b92915050565b600080600060608486031215610de957600080fd5b6000610df786828701610ced565b9350506020610e0886828701610dbf565b9250506040610e1986828701610dbf565b9150509250925092565b600060208284031215610e3557600080fd5b6000610e4384828501610d02565b91505092915050565b600060208284031215610e5e57600080fd5b600082013567ffffffffffffffff811115610e7857600080fd5b610e8484828501610d17565b91505092915050565b600060208284031215610e9f57600080fd5b600082015167ffffffffffffffff811115610eb957600080fd5b610ec584828501610d6b565b91505092915050565b60008060408385031215610ee157600080fd5b600083013567ffffffffffffffff811115610efb57600080fd5b610f0785828601610d17565b925050602083013567ffffffffffffffff811115610f2457600080fd5b610f3085828601610d17565b9150509250929050565b600060208284031215610f4c57600080fd5b6000610f5a84828501610dbf565b91505092915050565b60008060408385031215610f7657600080fd5b6000610f8485828601610dbf565b9250506020610f9585828601610ced565b9150509250929050565b610fa881611328565b82525050565b610fb78161133a565b82525050565b6000610fc882611301565b610fd2818561130c565b9350610fe281856020860161137f565b610feb816113b2565b840191505092915050565b600061100182611301565b61100b818561131d565b935061101b81856020860161137f565b80840191505092915050565b6000611032826112f6565b61103c818561130c565b935061104c81856020860161137f565b611055816113b2565b840191505092915050565b60008154600181166000811461107d57600181146110a2576110e6565b607f600283041661108e818761131d565b955060ff19831686528086019350506110e6565b600282046110b0818761131d565b95506110bb856112e1565b60005b828110156110dd578154818901526001820191506020810190506110be565b82880195505050505b505092915050565b6110f781611366565b82525050565b60006111098284610ff6565b915081905092915050565b60006111208284611060565b915081905092915050565b60006020820190506111406000830184610fae565b92915050565b600060208201905081810360008301526111608184611027565b905092915050565b600060208201905081810360008301526111828184610fbd565b905092915050565b600060408201905081810360008301526111a48185610fbd565b905081810360208301526111b88184610fbd565b90509392505050565b600060608201905081810360008301526111db8186611027565b90506111ea6020830185610fae565b81810360408301526111fc8184611027565b9050949350505050565b600060208201905061121b60008301846110ee565b92915050565b600060608201905061123660008301866110ee565b81810360208301526112488185610fbd565b90506112576040830184610f9f565b949350505050565b600060408201905061127460008301856110ee565b61128160208301846110ee565b9392505050565b6000604051905081810181811067ffffffffffffffff821117156112ab57600080fd5b8060405250919050565b600067ffffffffffffffff8211156112cc57600080fd5b601f19601f8301169050602081019050919050565b60008190508160005260206000209050919050565b600081519050919050565b600081519050919050565b600082825260208201905092915050565b600081905092915050565b600061133382611346565b9050919050565b60008115159050919050565b600073ffffffffffffffffffffffffffffffffffffffff82169050919050565b6000819050919050565b82818337600083830152505050565b60005b8381101561139d578082015181840152602081019050611382565b838111156113ac576000848401525b50505050565b6000601f19601f8301169050919050565b6113cc81611328565b81146113d757600080fd5b50565b6113e38161133a565b81146113ee57600080fd5b50565b6113fa81611366565b811461140557600080fd5b5056fea365627a7a72315820e937c712884e253c57302e85266510ca30e65316a7feb6d617fc2b765786648b6c6578706572696d656e74616cf564736f6c63430005100040",
  "source": "pragma solidity >=0.4.25;\npragma experimental ABIEncoderV2;\n\n\ncontract Patient {\n    // Personal Details - Minimalistic details required for creating block\n\n    string public name;\n    string public identificationProof;\n    string public addressProof;\n    uint256 public age;\n    uint256 public heightInCms;\n    uint256 public weightInKgs;\n    address public publicAddress;\n    uint256 public noOfRecords = 0;\n    uint256 public typeOfRec = 0;\n    string public mobileNumber;\n    string public emailAddress;\n\n    // Store structure of EHR as a mapping\n\n    struct EHR {\n        string fileLocation;\n        uint256 byDoctorID;\n        uint256 count;\n        uint256[] permissionedDoctors;\n        // uint256 permissionedDoctors;\n    }\n\n    mapping(uint256 => EHR) public healthRecords;\n\n    // Functions in Patient\n\n    constructor(\n        string memory n,\n        string memory idProof,\n        string memory addrProof,\n        uint256 a,\n        uint256 h,\n        uint256 w,\n        string memory mob,\n        string memory email\n    ) public {\n        name = n;\n        identificationProof = idProof;\n        addressProof = addrProof;\n        age = a;\n        heightInCms = h;\n        weightInKgs = w;\n        mobileNumber = mob;\n        emailAddress = email;\n        publicAddress = address(this);\n    }\n\n    // Get Type\n\n    function getType() public view returns (uint256) {\n        return typeOfRec;\n    }\n\n    // Get location of file\n\n    function getFileLocation(uint256 id)\n        external\n        view\n        returns (string memory fileLoc)\n    {\n        return healthRecords[id].fileLocation;\n    }\n\n    // Check if doctor has the required permissions\n\n    function checkForPermissions(uint256 id, uint256 doctorID)\n        external\n        view\n        returns (bool ans)\n    {\n        for (\n            uint256 i = 0;\n            i < healthRecords[id].permissionedDoctors.length;\n            i++\n        ) {\n            if (healthRecords[id].permissionedDoctors[i] == doctorID) {\n                return true;\n            }\n        }\n        return false;\n    }\n\n    function getRecordCount() public view returns (uint256) {\n        return noOfRecords;\n    }\n\n    // Get no of records in that EHR\n\n    function getEHRRecordCount(uint256 EHRId) public view returns (uint256) {\n        return healthRecords[EHRId].count;\n    }\n\n    // Create a new health record\n\n    function createNewRecord(uint256 doctorID, string memory fileLocation)\n        public\n    {\n        healthRecords[noOfRecords].byDoctorID = doctorID;\n        healthRecords[noOfRecords].count = 0;\n        healthRecords[noOfRecords].permissionedDoctors.push(doctorID);\n        healthRecords[noOfRecords++].fileLocation = fileLocation;\n    }\n\n    // Fetching minimalistic details of Patient\n\n    function fetchDetailsOfPatient()\n        public\n        view\n        returns (\n            string memory,\n            string memory,\n            string memory,\n            uint256,\n            uint256,\n            uint256,\n            string memory,\n            string memory\n        )\n    {\n        return (\n            name,\n            identificationProof,\n            addressProof,\n            age,\n            heightInCms,\n            weightInKgs,\n            mobileNumber,\n            emailAddress\n        );\n    }\n\n    // Fetching details of EHR given ID of EHR\n\n    function fetchDetailsOfEHR(uint256 ID)\n        public\n        view\n        returns (string memory, uint256, uint256, uint256[] memory)\n    {\n        return (\n            healthRecords[ID].fileLocation,\n            healthRecords[ID].byDoctorID,\n            healthRecords[ID].count,\n            healthRecords[ID].permissionedDoctors\n        );\n    }\n\n    // Fetching doctor of EHR given ID of EHR\n\n    function fetchPermissionedDoctorOfEHR(uint256 ID)\n        public\n        view\n        returns (uint256[] memory, uint256)\n    {\n        uint256[] memory doctors = new uint256[](\n            healthRecords[ID].permissionedDoctors.length\n        );\n        for (\n            uint256 i = 0;\n            i < healthRecords[ID].permissionedDoctors.length;\n            i++\n        ) {\n            doctors[i] = healthRecords[ID].permissionedDoctors[i];\n        }\n        return (doctors, ID);\n    }\n\n    // Add new doctor in permission field\n\n    function addDoctorToEHR(uint256 doctorID, uint256 EHRID) public {\n        healthRecords[EHRID].permissionedDoctors.push(doctorID);\n        healthRecords[EHRID].count++;\n    }\n\n    // Verification function\n\n    function verifyDoctor() public view returns (uint256) {\n        return now;\n    }\n\n    // Revoke Permissions of Doctor\n\n    function revokePermissionOfDoctorOnEHR(uint256 EHRId, uint256 doctorID)\n        public\n        returns (bool)\n    {\n        // healthRecords[EHRId].permissionedDoctors[doctorID] = 0;\n\n        for (\n            uint256 i = 0;\n            i < healthRecords[EHRId].permissionedDoctors.length;\n            i++\n        ) {\n            if (healthRecords[EHRId].permissionedDoctors[i] == doctorID) {\n                healthRecords[EHRId].permissionedDoctors[i] = 0;\n                /* if (i < healthRecords[EHRId].permissionedDoctors.length - 1) {\n                    healthRecords[EHRId]\n                        .permissionedDoctors[i] = healthRecords[EHRId]\n                        .permissionedDoctors[healthRecords[EHRId]\n                        .permissionedDoctors\n                        .length - 1];\n                } else {\n                    delete healthRecords[EHRId].permissionedDoctors[i];\n                } */\n\n                return true;\n            }\n        }\n\n        return false;\n    }\n\n    // Remove EHR\n\n    function removeEHR(uint256 ID) public {\n        healthRecords[ID].fileLocation = \"\";\n    }\n}\n\n\ncontract Consensus {\n    uint256 typeOfRec = 2;\n\n    struct instituteAddress {\n        string name;\n        bool active;\n        address medicalInstituteAddress;\n        uint256 lastModified;\n    }\n\n    // Get Type\n\n    function getType() public view returns (uint256) {\n        return typeOfRec;\n    }\n\n    // Get no of institutes\n\n    function getNoOfInstitutes() public view returns (uint256) {\n        return noOfAlloted;\n    }\n\n    // Keeps an array of all medical institutes and their last modified flag\n\n    mapping(uint256 => instituteAddress) public publicAddresses;\n    uint256 noOfAlloted = 0;\n\n    // Methods\n\n    // Registration of medical institute\n\n    function registerMedicalInstitute(string memory name, address publicAddress)\n        public\n        returns (uint256 id)\n    {\n        uint256 num = noOfAlloted;\n        publicAddresses[noOfAlloted].name = name;\n        publicAddresses[noOfAlloted].medicalInstituteAddress = publicAddress;\n        publicAddresses[noOfAlloted++].lastModified = now;\n        return num;\n    }\n\n    // Changes last modified flag of Medical Institute\n\n    function changeLastModified(uint256 time, uint256 id) public {\n        publicAddresses[id].lastModified = time;\n    }\n\n    function getAllInstitutes(uint256 i)\n        public\n        view\n        returns (instituteAddress memory)\n    {\n        return publicAddresses[i];\n    }\n\n    // Verification of OTP\n\n    function verify(uint256 num1, uint256 num2) public pure returns (bool) {\n        if (num1 == num2) {\n            return true;\n        }\n        return false;\n    }\n\n    // Deactivate Institute\n\n    function deactivateInstitute(uint256 id) public {\n        publicAddresses[id].active = false;\n    }\n}\n\n\ncontract MedicalInstitute {\n    Consensus consensusAddress;\n    bool active = true;\n    address conAddress;\n    uint256 typeOfRec = 1;\n    uint256 public myID;\n    string public myName;\n    uint256 noOfDocs = 1;\n\n    struct Doctor {\n        string name;\n        bool active;\n        string specialization;\n    }\n\n    mapping(uint256 => Doctor) public Doctors;\n\n    // Get type\n\n    function getType() public view returns (uint256) {\n        return typeOfRec;\n    }\n\n    // Constructor to get ID of medical institute\n\n    constructor(address cAddress, string memory n) public {\n        conAddress = cAddress;\n        consensusAddress = Consensus(cAddress);\n        myName = n;\n        myID = consensusAddress.registerMedicalInstitute(n, address(this));\n    }\n\n    // Register a doctor\n\n    function registerDoctor(string memory n, string memory spec)\n        public\n        returns (uint256)\n    {\n        uint256 num = noOfDocs;\n        Doctors[noOfDocs].name = n;\n        Doctors[noOfDocs].active = true;\n        Doctors[noOfDocs++].specialization = spec;\n        return num;\n    }\n\n    // Get Details of Medical Institute\n    function getDetails()\n        public\n        view\n        returns (uint256, string memory, address)\n    {\n        return (myID, myName, conAddress);\n    }\n\n    function getNoOfDocs() public view returns (uint256) {\n        return noOfDocs;\n    }\n\n    // Get details of a doctor\n\n    function getDetailsOfDoctor(uint256 _ID)\n        public\n        view\n        returns (string memory, string memory)\n    {\n        if (Doctors[_ID].active) {\n            return (Doctors[_ID].name, Doctors[_ID].specialization);\n        }\n        return (\"\", \"\");\n    }\n\n    // Check if doctor is active\n\n    function checkValidityOfDoctor(uint256 ID) public view returns (bool) {\n        return Doctors[ID].active;\n    }\n\n    // Updating Consensus after some activity\n\n    function updateLastModified() public {\n        consensusAddress.changeLastModified(now, myID);\n    }\n\n    function addPermissions(\n        address patientAddress,\n        uint256 EHRId,\n        uint256 doctorID\n    ) public {\n        Patient p = Patient(patientAddress);\n        p.addDoctorToEHR(doctorID, EHRId);\n    }\n\n    function getFileLocation(uint256 EHRId, address patientAddress)\n        public\n        view\n        returns (string memory)\n    {\n        Patient p = Patient(patientAddress);\n        return p.getFileLocation(EHRId);\n    }\n\n    function requestForAccess() public view returns (bool) {\n        uint256 OTP = now;\n        bool res = consensusAddress.verify(OTP, OTP);\n        return res;\n    }\n\n    // Revoke Doctor\n\n    function revokeDoctor(uint256 docID) public {\n        Doctors[docID].active = false;\n    }\n\n    // Revoke Medical Institute\n\n    function revokeMedicalInst() public {\n        active = false;\n    }\n\n    // Check if medical institute is active\n\n    function isActive() public view returns (bool) {\n        return active;\n    }\n\n    // Function to get ID of Doctor\n\n    function getIDOfDoctor(string memory name) public view returns (uint256) {\n        for (uint256 i = 0; i < noOfDocs; i++) {\n            if (\n                keccak256(abi.encodePacked((Doctors[i].name))) ==\n                keccak256(abi.encodePacked((name)))\n            ) {\n                return i;\n            }\n        }\n        return 0;\n    }\n}\n",
  "sourcePath": "/home/badminton-bhivpa/Education/EDI/workspace/contracts/TAAR.sol",
  "compiler": {
    "name": "solc",
    "version": "0.5.16+commit.9c3226ce.Emscripten.clang"
  },
  "schemaVersion": "3.1.0",
  "updatedAt": "2020-04-30T08:16:33.217Z",
  "networkType": "ethereum",
  "devdoc": {
    "methods": {}
  },
  "userdoc": {
    "methods": {}
  }
}