{
  "contractName": "Patient",
  "abi": [
    {
      "inputs": [
        {
          "internalType": "string",
          "name": "n",
          "type": "string"
        },
        {
          "internalType": "string",
          "name": "idProof",
          "type": "string"
        },
        {
          "internalType": "string",
          "name": "addrProof",
          "type": "string"
        },
        {
          "internalType": "uint256",
          "name": "a",
          "type": "uint256"
        },
        {
          "internalType": "uint256",
          "name": "h",
          "type": "uint256"
        },
        {
          "internalType": "uint256",
          "name": "w",
          "type": "uint256"
        }
      ],
      "payable": false,
      "stateMutability": "nonpayable",
      "type": "constructor"
    },
    {
      "constant": true,
      "inputs": [],
      "name": "addressProof",
      "outputs": [
        {
          "internalType": "string",
          "name": "",
          "type": "string"
        }
      ],
      "payable": false,
      "stateMutability": "view",
      "type": "function"
    },
    {
      "constant": true,
      "inputs": [],
      "name": "age",
      "outputs": [
        {
          "internalType": "uint256",
          "name": "",
          "type": "uint256"
        }
      ],
      "payable": false,
      "stateMutability": "view",
      "type": "function"
    },
    {
      "constant": true,
      "inputs": [
        {
          "internalType": "uint256",
          "name": "",
          "type": "uint256"
        }
      ],
      "name": "healthRecords",
      "outputs": [
        {
          "internalType": "string",
          "name": "fileLocation",
          "type": "string"
        },
        {
          "internalType": "uint256",
          "name": "byDoctorID",
          "type": "uint256"
        },
        {
          "internalType": "uint256",
          "name": "count",
          "type": "uint256"
        },
        {
          "internalType": "uint256",
          "name": "permissionedDoctors",
          "type": "uint256"
        }
      ],
      "payable": false,
      "stateMutability": "view",
      "type": "function"
    },
    {
      "constant": true,
      "inputs": [],
      "name": "heightInCms",
      "outputs": [
        {
          "internalType": "uint256",
          "name": "",
          "type": "uint256"
        }
      ],
      "payable": false,
      "stateMutability": "view",
      "type": "function"
    },
    {
      "constant": true,
      "inputs": [],
      "name": "identificationProof",
      "outputs": [
        {
          "internalType": "string",
          "name": "",
          "type": "string"
        }
      ],
      "payable": false,
      "stateMutability": "view",
      "type": "function"
    },
    {
      "constant": true,
      "inputs": [],
      "name": "name",
      "outputs": [
        {
          "internalType": "string",
          "name": "",
          "type": "string"
        }
      ],
      "payable": false,
      "stateMutability": "view",
      "type": "function"
    },
    {
      "constant": true,
      "inputs": [],
      "name": "noOfRecords",
      "outputs": [
        {
          "internalType": "uint256",
          "name": "",
          "type": "uint256"
        }
      ],
      "payable": false,
      "stateMutability": "view",
      "type": "function"
    },
    {
      "constant": true,
      "inputs": [],
      "name": "publicAddress",
      "outputs": [
        {
          "internalType": "address",
          "name": "",
          "type": "address"
        }
      ],
      "payable": false,
      "stateMutability": "view",
      "type": "function"
    },
    {
      "constant": true,
      "inputs": [],
      "name": "typeOfRec",
      "outputs": [
        {
          "internalType": "uint256",
          "name": "",
          "type": "uint256"
        }
      ],
      "payable": false,
      "stateMutability": "view",
      "type": "function"
    },
    {
      "constant": true,
      "inputs": [],
      "name": "weightInKgs",
      "outputs": [
        {
          "internalType": "uint256",
          "name": "",
          "type": "uint256"
        }
      ],
      "payable": false,
      "stateMutability": "view",
      "type": "function"
    },
    {
      "constant": true,
      "inputs": [],
      "name": "getType",
      "outputs": [
        {
          "internalType": "uint256",
          "name": "",
          "type": "uint256"
        }
      ],
      "payable": false,
      "stateMutability": "view",
      "type": "function"
    },
    {
      "constant": true,
      "inputs": [
        {
          "internalType": "uint256",
          "name": "id",
          "type": "uint256"
        }
      ],
      "name": "getFileLocation",
      "outputs": [
        {
          "internalType": "string",
          "name": "fileLoc",
          "type": "string"
        }
      ],
      "payable": false,
      "stateMutability": "view",
      "type": "function"
    },
    {
      "constant": true,
      "inputs": [
        {
          "internalType": "uint256",
          "name": "id",
          "type": "uint256"
        },
        {
          "internalType": "uint256",
          "name": "doctorID",
          "type": "uint256"
        }
      ],
      "name": "checkForPermissions",
      "outputs": [
        {
          "internalType": "bool",
          "name": "ans",
          "type": "bool"
        }
      ],
      "payable": false,
      "stateMutability": "view",
      "type": "function"
    },
    {
      "constant": true,
      "inputs": [],
      "name": "getRecordCount",
      "outputs": [
        {
          "internalType": "uint256",
          "name": "",
          "type": "uint256"
        }
      ],
      "payable": false,
      "stateMutability": "view",
      "type": "function"
    },
    {
      "constant": true,
      "inputs": [
        {
          "internalType": "uint256",
          "name": "EHRId",
          "type": "uint256"
        }
      ],
      "name": "getEHRRecordCount",
      "outputs": [
        {
          "internalType": "uint256",
          "name": "",
          "type": "uint256"
        }
      ],
      "payable": false,
      "stateMutability": "view",
      "type": "function"
    },
    {
      "constant": false,
      "inputs": [
        {
          "internalType": "uint256",
          "name": "doctorID",
          "type": "uint256"
        },
        {
          "internalType": "string",
          "name": "fileLocation",
          "type": "string"
        }
      ],
      "name": "createNewRecord",
      "outputs": [],
      "payable": false,
      "stateMutability": "nonpayable",
      "type": "function"
    },
    {
      "constant": true,
      "inputs": [],
      "name": "fetchDetailsOfPatient",
      "outputs": [
        {
          "internalType": "string",
          "name": "",
          "type": "string"
        },
        {
          "internalType": "string",
          "name": "",
          "type": "string"
        },
        {
          "internalType": "string",
          "name": "",
          "type": "string"
        },
        {
          "internalType": "uint256",
          "name": "",
          "type": "uint256"
        },
        {
          "internalType": "uint256",
          "name": "",
          "type": "uint256"
        },
        {
          "internalType": "uint256",
          "name": "",
          "type": "uint256"
        }
      ],
      "payable": false,
      "stateMutability": "view",
      "type": "function"
    },
    {
      "constant": true,
      "inputs": [
        {
          "internalType": "uint256",
          "name": "ID",
          "type": "uint256"
        }
      ],
      "name": "fetchDetailsOfEHR",
      "outputs": [
        {
          "internalType": "string",
          "name": "",
          "type": "string"
        },
        {
          "internalType": "uint256",
          "name": "",
          "type": "uint256"
        },
        {
          "internalType": "uint256",
          "name": "",
          "type": "uint256"
        },
        {
          "internalType": "uint256",
          "name": "",
          "type": "uint256"
        }
      ],
      "payable": false,
      "stateMutability": "view",
      "type": "function"
    },
    {
      "constant": false,
      "inputs": [
        {
          "internalType": "uint256",
          "name": "doctorID",
          "type": "uint256"
        },
        {
          "internalType": "uint256",
          "name": "EHRID",
          "type": "uint256"
        }
      ],
      "name": "addDoctorToEHR",
      "outputs": [],
      "payable": false,
      "stateMutability": "nonpayable",
      "type": "function"
    },
    {
      "constant": true,
      "inputs": [],
      "name": "verifyDoctor",
      "outputs": [
        {
          "internalType": "uint256",
          "name": "",
          "type": "uint256"
        }
      ],
      "payable": false,
      "stateMutability": "view",
      "type": "function"
    },
    {
      "constant": false,
      "inputs": [
        {
          "internalType": "uint256",
          "name": "EHRId",
          "type": "uint256"
        },
        {
          "internalType": "uint256",
          "name": "doctorID",
          "type": "uint256"
        }
      ],
      "name": "revokePermissionOfDoctorOnEHR",
      "outputs": [],
      "payable": false,
      "stateMutability": "nonpayable",
      "type": "function"
    },
    {
      "constant": false,
      "inputs": [
        {
          "internalType": "uint256",
          "name": "EHRID",
          "type": "uint256"
        }
      ],
      "name": "deleteEHRDetails",
      "outputs": [],
      "payable": false,
      "stateMutability": "nonpayable",
      "type": "function"
    }
  ],
  "bytecode": "0x6080604052600060075560006008553480156200001b57600080fd5b506040516200163138038062001631833981810160405262000041919081019062000210565b856000908051906020019062000059929190620000ee565b50846001908051906020019062000072929190620000ee565b5083600290805190602001906200008b929190620000ee565b5082600381905550816004819055508060058190555030600660006101000a81548173ffffffffffffffffffffffffffffffffffffffff021916908373ffffffffffffffffffffffffffffffffffffffff160217905550505050505050620003a6565b828054600181600116156101000203166002900490600052602060002090601f016020900481019282601f106200013157805160ff191683800117855562000162565b8280016001018555821562000162579182015b828111156200016157825182559160200191906001019062000144565b5b50905062000171919062000175565b5090565b6200019a91905b80821115620001965760008160009055506001016200017c565b5090565b90565b600082601f830112620001af57600080fd5b8151620001c6620001c0826200031f565b620002f1565b91508082526020830160208301858383011115620001e357600080fd5b620001f083828462000356565b50505092915050565b6000815190506200020a816200038c565b92915050565b60008060008060008060c087890312156200022a57600080fd5b600087015167ffffffffffffffff8111156200024557600080fd5b6200025389828a016200019d565b965050602087015167ffffffffffffffff8111156200027157600080fd5b6200027f89828a016200019d565b955050604087015167ffffffffffffffff8111156200029d57600080fd5b620002ab89828a016200019d565b9450506060620002be89828a01620001f9565b9350506080620002d189828a01620001f9565b92505060a0620002e489828a01620001f9565b9150509295509295509295565b6000604051905081810181811067ffffffffffffffff821117156200031557600080fd5b8060405250919050565b600067ffffffffffffffff8211156200033757600080fd5b601f19601f8301169050602081019050919050565b6000819050919050565b60005b838110156200037657808201518184015260208101905062000359565b8381111562000386576000848401525b50505050565b62000397816200034c565b8114620003a357600080fd5b50565b61127b80620003b66000396000f3fe608060405234801561001057600080fd5b50600436106101425760003560e01c80639f1d2e6e116100b8578063c3f9c6c41161007c578063c3f9c6c414610388578063ca267f28146103a4578063d5283e9a146103c2578063e09ebd31146103e0578063e27c4bfc146103fe578063f676f3311461041a57610142565b80639f1d2e6e146102cf5780639fcddf86146102eb578063a5bfe0f014610307578063aada53a714610325578063b665c0d31461035557610142565b8063371c93b41161010a578063371c93b41461020457806357bb0829146102345780636270fcef146102575780637056784a14610275578063850aaa781461029357806395fcd9dd146102b157610142565b806306fdde0314610147578063158cb5361461016557806315dae03e1461019557806325607860146101b3578063262a9dff146101e6575b600080fd5b61014f610438565b60405161015c9190610f99565b60405180910390f35b61017f600480360361017a9190810190610e0b565b6104d6565b60405161018c91906110eb565b60405180910390f35b61019d6104f6565b6040516101aa91906110eb565b60405180910390f35b6101cd60048036036101c89190810190610e0b565b610500565b6040516101dd9493929190611053565b60405180910390f35b6101ee61060d565b6040516101fb91906110eb565b60405180910390f35b61021e60048036036102199190810190610e0b565b610613565b60405161022b9190610fbb565b60405180910390f35b61023c6106cb565b60405161024e96959493929190610fdd565b60405180910390f35b61025f6108cb565b60405161026c91906110eb565b60405180910390f35b61027d6108d3565b60405161028a91906110eb565b60405180910390f35b61029b6108d9565b6040516102a89190610f99565b60405180910390f35b6102b9610977565b6040516102c691906110eb565b60405180910390f35b6102e960048036036102e49190810190610e0b565b61097d565b005b61030560048036036103009190810190610e88565b610a0c565b005b61030f610a4b565b60405161031c91906110eb565b60405180910390f35b61033f600480360361033a9190810190610e88565b610a51565b60405161034c9190610f7e565b60405180910390f35b61036f600480360361036a9190810190610e0b565b610a85565b60405161037f949392919061109f565b60405180910390f35b6103a2600480360361039d9190810190610e88565b610b4d565b005b6103ac610b92565b6040516103b991906110eb565b60405180910390f35b6103ca610b9c565b6040516103d79190610f99565b60405180910390f35b6103e8610c3a565b6040516103f591906110eb565b60405180910390f35b61041860048036036104139190810190610e34565b610c40565b005b610422610cd7565b60405161042f9190610f63565b60405180910390f35b60008054600181600116156101000203166002900480601f0160208091040260200160405190810160405280929190818152602001828054600181600116156101000203166002900480156104ce5780601f106104a3576101008083540402835291602001916104ce565b820191906000526020600020905b8154815290600101906020018083116104b157829003601f168201915b505050505081565b600060096000838152602001908152602001600020600201549050919050565b6000600854905090565b6060600080600060096000868152602001908152602001600020600001600960008781526020019081526020016000206001015460096000888152602001908152602001600020600201546009600089815260200190815260200160002060030154838054600181600116156101000203166002900480601f0160208091040260200160405190810160405280929190818152602001828054600181600116156101000203166002900480156105f75780601f106105cc576101008083540402835291602001916105f7565b820191906000526020600020905b8154815290600101906020018083116105da57829003601f168201915b5050505050935093509350935093509193509193565b60035481565b6060600960008381526020019081526020016000206000018054600181600116156101000203166002900480601f0160208091040260200160405190810160405280929190818152602001828054600181600116156101000203166002900480156106bf5780601f10610694576101008083540402835291602001916106bf565b820191906000526020600020905b8154815290600101906020018083116106a257829003601f168201915b50505050509050919050565b606080606060008060008060016002600354600454600554858054600181600116156101000203166002900480601f0160208091040260200160405190810160405280929190818152602001828054600181600116156101000203166002900480156107785780601f1061074d57610100808354040283529160200191610778565b820191906000526020600020905b81548152906001019060200180831161075b57829003601f168201915b50505050509550848054600181600116156101000203166002900480601f0160208091040260200160405190810160405280929190818152602001828054600181600116156101000203166002900480156108145780601f106107e957610100808354040283529160200191610814565b820191906000526020600020905b8154815290600101906020018083116107f757829003601f168201915b50505050509450838054600181600116156101000203166002900480601f0160208091040260200160405190810160405280929190818152602001828054600181600116156101000203166002900480156108b05780601f10610885576101008083540402835291602001916108b0565b820191906000526020600020905b81548152906001019060200180831161089357829003601f168201915b50505050509350955095509550955095509550909192939495565b600042905090565b60045481565b60028054600181600116156101000203166002900480601f01602080910402602001604051908101604052809291908181526020018280546001816001161561010002031660029004801561096f5780601f106109445761010080835404028352916020019161096f565b820191906000526020600020905b81548152906001019060200180831161095257829003601f168201915b505050505081565b60085481565b604051806020016040528060008152506009600083815260200190815260200160002060000190805190602001906109b6929190610cfd565b506000600960008381526020019081526020016000206001018190555060006009600083815260200190815260200160002060020181905550600960008281526020019081526020016000206003016000905550565b8060096000848152602001908152602001600020600301541415610a4757600060096000848152602001908152602001600020600301819055505b5050565b60055481565b60006009600084815260200190815260200160002060030154821415610a7a5760019050610a7f565b600090505b92915050565b6009602052806000526040600020600091509050806000018054600181600116156101000203166002900480601f016020809104026020016040519081016040528092919081815260200182805460018160011615610100020316600290048015610b315780601f10610b0657610100808354040283529160200191610b31565b820191906000526020600020905b815481529060010190602001808311610b1457829003601f168201915b5050505050908060010154908060020154908060030154905084565b81600960008381526020019081526020016000206003018190555060096000828152602001908152602001600020600201600081548092919060010191905055505050565b6000600754905090565b60018054600181600116156101000203166002900480601f016020809104026020016040519081016040528092919081815260200182805460018160011615610100020316600290048015610c325780601f10610c0757610100808354040283529160200191610c32565b820191906000526020600020905b815481529060010190602001808311610c1557829003601f168201915b505050505081565b60075481565b816009600060075481526020019081526020016000206001018190555060006009600060075481526020019081526020016000206002018190555081600960006007548152602001908152602001600020600301819055508060096000600760008154809291906001019190505581526020019081526020016000206000019080519060200190610cd2929190610cfd565b505050565b600660009054906101000a900473ffffffffffffffffffffffffffffffffffffffff1681565b828054600181600116156101000203166002900490600052602060002090601f016020900481019282601f10610d3e57805160ff1916838001178555610d6c565b82800160010185558215610d6c579182015b82811115610d6b578251825591602001919060010190610d50565b5b509050610d799190610d7d565b5090565b610d9f91905b80821115610d9b576000816000905550600101610d83565b5090565b90565b600082601f830112610db357600080fd5b8135610dc6610dc182611133565b611106565b91508082526020830160208301858383011115610de257600080fd5b610ded8382846111ce565b50505092915050565b600081359050610e0581611221565b92915050565b600060208284031215610e1d57600080fd5b6000610e2b84828501610df6565b91505092915050565b60008060408385031215610e4757600080fd5b6000610e5585828601610df6565b925050602083013567ffffffffffffffff811115610e7257600080fd5b610e7e85828601610da2565b9150509250929050565b60008060408385031215610e9b57600080fd5b6000610ea985828601610df6565b9250506020610eba85828601610df6565b9150509250929050565b610ecd81611186565b82525050565b610edc81611198565b82525050565b6000610eed8261116a565b610ef78185611175565b9350610f078185602086016111dd565b610f1081611210565b840191505092915050565b6000610f268261115f565b610f308185611175565b9350610f408185602086016111dd565b610f4981611210565b840191505092915050565b610f5d816111c4565b82525050565b6000602082019050610f786000830184610ec4565b92915050565b6000602082019050610f936000830184610ed3565b92915050565b60006020820190508181036000830152610fb38184610f1b565b905092915050565b60006020820190508181036000830152610fd58184610ee2565b905092915050565b600060c0820190508181036000830152610ff78189610ee2565b9050818103602083015261100b8188610ee2565b9050818103604083015261101f8187610ee2565b905061102e6060830186610f54565b61103b6080830185610f54565b61104860a0830184610f54565b979650505050505050565b6000608082019050818103600083015261106d8187610ee2565b905061107c6020830186610f54565b6110896040830185610f54565b6110966060830184610f54565b95945050505050565b600060808201905081810360008301526110b98187610f1b565b90506110c86020830186610f54565b6110d56040830185610f54565b6110e26060830184610f54565b95945050505050565b60006020820190506111006000830184610f54565b92915050565b6000604051905081810181811067ffffffffffffffff8211171561112957600080fd5b8060405250919050565b600067ffffffffffffffff82111561114a57600080fd5b601f19601f8301169050602081019050919050565b600081519050919050565b600081519050919050565b600082825260208201905092915050565b6000611191826111a4565b9050919050565b60008115159050919050565b600073ffffffffffffffffffffffffffffffffffffffff82169050919050565b6000819050919050565b82818337600083830152505050565b60005b838110156111fb5780820151818401526020810190506111e0565b8381111561120a576000848401525b50505050565b6000601f19601f8301169050919050565b61122a816111c4565b811461123557600080fd5b5056fea365627a7a72315820d5a232edc5bc8dc567c00ec5aa51dbb98020de6d9d77d2d8b9e5a843ed1c7e7c6c6578706572696d656e74616cf564736f6c63430005100040",
  "source": "pragma solidity >=0.4.25;\npragma experimental ABIEncoderV2;\n\n\ncontract Patient {\n    // Personal Details - Minimalistic details required for creating block\n\n    string public name;\n    string public identificationProof;\n    string public addressProof;\n    uint256 public age;\n    uint256 public heightInCms;\n    uint256 public weightInKgs;\n    address public publicAddress;\n    uint256 public noOfRecords = 0;\n    uint256 public typeOfRec = 0;\n\n    // Store structure of EHR as a mapping\n\n    struct EHR {\n        string fileLocation;\n        uint256 byDoctorID;\n        uint256 count;\n        uint256 permissionedDoctors;\n    }\n\n    mapping(uint256 => EHR) public healthRecords;\n\n    // Functions in Patient\n\n    constructor(\n        string memory n,\n        string memory idProof,\n        string memory addrProof,\n        uint256 a,\n        uint256 h,\n        uint256 w\n    ) public {\n        name = n;\n        identificationProof = idProof;\n        addressProof = addrProof;\n        age = a;\n        heightInCms = h;\n        weightInKgs = w;\n        publicAddress = address(this);\n    }\n\n    // Get Type\n\n    function getType() public view returns (uint256) {\n        return typeOfRec;\n    }\n\n    // Get location of file\n\n    function getFileLocation(uint256 id)\n        external\n        view\n        returns (string memory fileLoc)\n    {\n        return healthRecords[id].fileLocation;\n    }\n\n    // Check if doctor has the required permissions\n\n    function checkForPermissions(uint256 id, uint256 doctorID)\n        external\n        view\n        returns (bool ans)\n    {\n        if (doctorID == healthRecords[id].permissionedDoctors) {\n            return true;\n        }\n        return false;\n    }\n\n    function getRecordCount() public view returns (uint256) {\n        return noOfRecords;\n    }\n\n    // Get no of records in that EHR\n\n    function getEHRRecordCount(uint256 EHRId) public view returns (uint256) {\n        return healthRecords[EHRId].count;\n    }\n\n    // Create a new health record\n\n    function createNewRecord(uint256 doctorID, string memory fileLocation)\n        public\n    {\n        healthRecords[noOfRecords].byDoctorID = doctorID;\n        healthRecords[noOfRecords].count = 0;\n        healthRecords[noOfRecords].permissionedDoctors = doctorID;\n        healthRecords[noOfRecords++].fileLocation = fileLocation;\n    }\n\n    // Fetching minimalistic details of Patient\n\n    function fetchDetailsOfPatient()\n        public\n        view\n        returns (\n            string memory,\n            string memory,\n            string memory,\n            uint256,\n            uint256,\n            uint256\n        )\n    {\n        return (\n            name,\n            identificationProof,\n            addressProof,\n            age,\n            heightInCms,\n            weightInKgs\n        );\n    }\n\n    // Fetching details of EHR given ID of EHR\n\n    function fetchDetailsOfEHR(uint256 ID)\n        public\n        view\n        returns (string memory, uint256, uint256, uint256)\n    {\n        return (\n            healthRecords[ID].fileLocation,\n            healthRecords[ID].byDoctorID,\n            healthRecords[ID].count,\n            healthRecords[ID].permissionedDoctors\n        );\n    }\n\n    // Add new doctor in permission field\n\n    function addDoctorToEHR(uint256 doctorID, uint256 EHRID) public {\n        healthRecords[EHRID].permissionedDoctors = doctorID;\n        healthRecords[EHRID].count++;\n    }\n\n    // Verification function\n\n    function verifyDoctor() public view returns (uint256) {\n        return now;\n    }\n\n    // Revoke Permissions of Doctor\n\n    function revokePermissionOfDoctorOnEHR(uint256 EHRId, uint256 doctorID)\n        public\n    {\n        if (healthRecords[EHRId].permissionedDoctors == doctorID) {\n            healthRecords[EHRId].permissionedDoctors = 0;\n        }\n    }\n\n    // Delete EHR details\n\n    function deleteEHRDetails(uint EHRID) public {\n        healthRecords[EHRID].fileLocation = \"\";\n        healthRecords[EHRID].byDoctorID = 0;\n        healthRecords[EHRID].count = 0;\n        delete healthRecords[EHRID].permissionedDoctors;\n    }\n}\n\n\ncontract Consensus {\n    uint256 typeOfRec = 2;\n\n    struct instituteAddress {\n        string name;\n        bool active;\n        address medicalInstituteAddress;\n        uint256 lastModified;\n    }\n\n    // Get Type\n\n    function getType() public view returns (uint256) {\n        return typeOfRec;\n    }\n\n    // Get no of institutes\n\n    function getNoOfInstitutes() public view returns (uint) {\n        return noOfAlloted;\n    }\n\n    // Keeps an array of all medical institutes and their last modified flag\n\n    mapping(uint256 => instituteAddress) public publicAddresses;\n    uint256 noOfAlloted = 0;\n\n    // Methods\n\n    // Registration of medical institute\n\n    function registerMedicalInstitute(string memory name, address publicAddress)\n        public\n        returns (uint256 id)\n    {\n        uint256 num = noOfAlloted;\n        publicAddresses[noOfAlloted].name = name;\n        publicAddresses[noOfAlloted].medicalInstituteAddress = publicAddress;\n        publicAddresses[noOfAlloted++].lastModified = now;\n        return num;\n    }\n\n    // Changes last modified flag of Medical Institute\n\n    function changeLastModified(uint256 time, uint256 id) public {\n        publicAddresses[id].lastModified = time;\n    }\n\n    function getAllInstitutes(uint i) public view returns (instituteAddress memory) {\n        return publicAddresses[i];\n    }\n\n    // Verification of OTP\n\n    function verify(uint256 num1, uint256 num2) public pure returns (bool) {\n        if (num1 == num2) {\n            return true;\n        }\n        return false;\n    }\n\n    // Deactivate Institute\n\n    function deactivateInstitute(uint id) public {\n        publicAddresses[id].active = false;\n    }\n\n    \n}\n\n\ncontract MedicalInstitute {\n    Consensus consensusAddress;\n    bool active = true;\n    address conAddress;\n    uint256 typeOfRec = 1;\n    uint256 public myID;\n    string public myName;\n    uint256 noOfDocs = 1;\n\n    struct Doctor {\n        string name;\n        bool active;\n        string specialization;\n    }\n\n    mapping(uint256 => Doctor) public Doctors;\n\n    // Get type\n\n    function getType() public view returns (uint256) {\n        return typeOfRec;\n    }\n\n    // Constructor to get ID of medical institute\n\n    constructor(address cAddress, string memory n) public {\n        conAddress = cAddress;\n        consensusAddress = Consensus(cAddress);\n        myName = n;\n        myID = consensusAddress.registerMedicalInstitute(n, address(this));\n    }\n\n    // Register a doctor\n\n    function registerDoctor(string memory n, string memory spec)\n        public\n        returns (uint256)\n    {\n        uint256 num = noOfDocs;\n        Doctors[noOfDocs].name = n;\n        Doctors[noOfDocs].active = true;\n        Doctors[noOfDocs++].specialization = spec;\n        return num;\n    }\n\n    // Get Details of Medical Institute\n    function getDetails()\n        public\n        view\n        returns (uint256, string memory, address)\n    {\n        return (myID, myName, conAddress);\n    }\n\n    function getNoOfDocs() public view returns (uint256) {\n        return noOfDocs;\n    }\n\n    // Get details of a doctor\n\n    function getDetailsOfDoctor(uint256 _ID)\n        public\n        view\n        returns (string memory, string memory)\n    {\n        if(Doctors[_ID].active) {\n        return (Doctors[_ID].name, Doctors[_ID].specialization);\n        }\n        return (\"\", \"\");\n    }\n\n    // Check if doctor is active\n\n    function checkValidityOfDoctor(uint ID) public view returns (bool) {\n        return Doctors[ID].active;\n    }\n\n    // Updating Consensus after some activity\n\n    function updateLastModified() public {\n        consensusAddress.changeLastModified(now, myID);\n    }\n\n    function addPermissions(\n        address patientAddress,\n        uint256 EHRId,\n        uint256 doctorID\n    ) public {\n        Patient p = Patient(patientAddress);\n        p.addDoctorToEHR(doctorID, EHRId);\n    }\n\n    function getFileLocation(uint256 EHRId, address patientAddress)\n        public\n        view\n        returns (string memory)\n    {\n        Patient p = Patient(patientAddress);\n        return p.getFileLocation(EHRId);\n    }\n\n    function requestForAccess() public view returns (bool) {\n        uint256 OTP = now;\n        bool res = consensusAddress.verify(OTP, OTP);\n        return res;\n    }\n\n    // Revoke Doctor\n\n    function revokeDoctor(uint docID) public {\n        Doctors[docID].active = false;\n    }\n\n    // Revoke Medical Institute\n\n    function revokeMedicalInst() public  {\n        active = false;\n    }\n\n    // Check if medical institute is active\n\n    function isActive() public view returns (bool) {\n        return active;\n    }\n\n    // Function to get ID of Doctor\n\n    function getIDOfDoctor(string memory name) public view returns (uint) {\n        for(uint i = 0;i < noOfDocs;i++) {\n            if(keccak256(abi.encodePacked((Doctors[i].name))) == keccak256(abi.encodePacked((name)))) {\n                return i;\n            }\n        }\n        return 0;\n    }\n}\n",
  "sourcePath": "/home/badminton-bhivpa/Education/EDI/workspace/contracts/TAAR.sol",
  "compiler": {
    "name": "solc",
    "version": "0.5.16+commit.9c3226ce.Emscripten.clang"
  },
  "schemaVersion": "3.1.0",
  "updatedAt": "2020-04-28T11:55:27.451Z",
  "networkType": "ethereum",
  "devdoc": {
    "methods": {}
  },
  "userdoc": {
    "methods": {}
  }
}