{
  "contractName": "Patient",
  "abi": [
    {
      "inputs": [
        {
          "internalType": "string",
          "name": "n",
          "type": "string"
        },
        {
          "internalType": "string",
          "name": "idProof",
          "type": "string"
        },
        {
          "internalType": "string",
          "name": "addrProof",
          "type": "string"
        },
        {
          "internalType": "uint256",
          "name": "a",
          "type": "uint256"
        },
        {
          "internalType": "uint256",
          "name": "h",
          "type": "uint256"
        },
        {
          "internalType": "uint256",
          "name": "w",
          "type": "uint256"
        }
      ],
      "payable": false,
      "stateMutability": "nonpayable",
      "type": "constructor"
    },
    {
      "constant": true,
      "inputs": [],
      "name": "addressProof",
      "outputs": [
        {
          "internalType": "string",
          "name": "",
          "type": "string"
        }
      ],
      "payable": false,
      "stateMutability": "view",
      "type": "function"
    },
    {
      "constant": true,
      "inputs": [],
      "name": "age",
      "outputs": [
        {
          "internalType": "uint256",
          "name": "",
          "type": "uint256"
        }
      ],
      "payable": false,
      "stateMutability": "view",
      "type": "function"
    },
    {
      "constant": true,
      "inputs": [
        {
          "internalType": "uint256",
          "name": "",
          "type": "uint256"
        }
      ],
      "name": "healthRecords",
      "outputs": [
        {
          "internalType": "string",
          "name": "fileLocation",
          "type": "string"
        },
        {
          "internalType": "uint256",
          "name": "byDoctorID",
          "type": "uint256"
        },
        {
          "internalType": "uint256",
          "name": "count",
          "type": "uint256"
        }
      ],
      "payable": false,
      "stateMutability": "view",
      "type": "function"
    },
    {
      "constant": true,
      "inputs": [],
      "name": "heightInCms",
      "outputs": [
        {
          "internalType": "uint256",
          "name": "",
          "type": "uint256"
        }
      ],
      "payable": false,
      "stateMutability": "view",
      "type": "function"
    },
    {
      "constant": true,
      "inputs": [],
      "name": "identificationProof",
      "outputs": [
        {
          "internalType": "string",
          "name": "",
          "type": "string"
        }
      ],
      "payable": false,
      "stateMutability": "view",
      "type": "function"
    },
    {
      "constant": true,
      "inputs": [],
      "name": "name",
      "outputs": [
        {
          "internalType": "string",
          "name": "",
          "type": "string"
        }
      ],
      "payable": false,
      "stateMutability": "view",
      "type": "function"
    },
    {
      "constant": true,
      "inputs": [],
      "name": "noOfRecords",
      "outputs": [
        {
          "internalType": "uint256",
          "name": "",
          "type": "uint256"
        }
      ],
      "payable": false,
      "stateMutability": "view",
      "type": "function"
    },
    {
      "constant": true,
      "inputs": [],
      "name": "publicAddress",
      "outputs": [
        {
          "internalType": "address",
          "name": "",
          "type": "address"
        }
      ],
      "payable": false,
      "stateMutability": "view",
      "type": "function"
    },
    {
      "constant": true,
      "inputs": [],
      "name": "typeOfRec",
      "outputs": [
        {
          "internalType": "uint256",
          "name": "",
          "type": "uint256"
        }
      ],
      "payable": false,
      "stateMutability": "view",
      "type": "function"
    },
    {
      "constant": true,
      "inputs": [],
      "name": "weightInKgs",
      "outputs": [
        {
          "internalType": "uint256",
          "name": "",
          "type": "uint256"
        }
      ],
      "payable": false,
      "stateMutability": "view",
      "type": "function"
    },
    {
      "constant": true,
      "inputs": [],
      "name": "getType",
      "outputs": [
        {
          "internalType": "uint256",
          "name": "",
          "type": "uint256"
        }
      ],
      "payable": false,
      "stateMutability": "view",
      "type": "function"
    },
    {
      "constant": true,
      "inputs": [
        {
          "internalType": "uint256",
          "name": "id",
          "type": "uint256"
        }
      ],
      "name": "getFileLocation",
      "outputs": [
        {
          "internalType": "string",
          "name": "fileLoc",
          "type": "string"
        }
      ],
      "payable": false,
      "stateMutability": "view",
      "type": "function"
    },
    {
      "constant": true,
      "inputs": [
        {
          "internalType": "uint256",
          "name": "id",
          "type": "uint256"
        },
        {
          "internalType": "uint256",
          "name": "doctorID",
          "type": "uint256"
        }
      ],
      "name": "checkForPermissions",
      "outputs": [
        {
          "internalType": "bool",
          "name": "ans",
          "type": "bool"
        }
      ],
      "payable": false,
      "stateMutability": "view",
      "type": "function"
    },
    {
      "constant": true,
      "inputs": [],
      "name": "getRecordCount",
      "outputs": [
        {
          "internalType": "uint256",
          "name": "",
          "type": "uint256"
        }
      ],
      "payable": false,
      "stateMutability": "view",
      "type": "function"
    },
    {
      "constant": true,
      "inputs": [
        {
          "internalType": "uint256",
          "name": "EHRId",
          "type": "uint256"
        }
      ],
      "name": "getEHRRecordCount",
      "outputs": [
        {
          "internalType": "uint256",
          "name": "",
          "type": "uint256"
        }
      ],
      "payable": false,
      "stateMutability": "view",
      "type": "function"
    },
    {
      "constant": false,
      "inputs": [
        {
          "internalType": "uint256",
          "name": "doctorID",
          "type": "uint256"
        },
        {
          "internalType": "string",
          "name": "fileLocation",
          "type": "string"
        }
      ],
      "name": "createNewRecord",
      "outputs": [],
      "payable": false,
      "stateMutability": "nonpayable",
      "type": "function"
    },
    {
      "constant": true,
      "inputs": [],
      "name": "fetchDetailsOfPatient",
      "outputs": [
        {
          "internalType": "string",
          "name": "",
          "type": "string"
        },
        {
          "internalType": "string",
          "name": "",
          "type": "string"
        },
        {
          "internalType": "string",
          "name": "",
          "type": "string"
        },
        {
          "internalType": "uint256",
          "name": "",
          "type": "uint256"
        },
        {
          "internalType": "uint256",
          "name": "",
          "type": "uint256"
        },
        {
          "internalType": "uint256",
          "name": "",
          "type": "uint256"
        }
      ],
      "payable": false,
      "stateMutability": "view",
      "type": "function"
    },
    {
      "constant": true,
      "inputs": [
        {
          "internalType": "uint256",
          "name": "ID",
          "type": "uint256"
        }
      ],
      "name": "fetchDetailsOfEHR",
      "outputs": [
        {
          "internalType": "string",
          "name": "",
          "type": "string"
        },
        {
          "internalType": "uint256",
          "name": "",
          "type": "uint256"
        },
        {
          "internalType": "uint256",
          "name": "",
          "type": "uint256"
        },
        {
          "internalType": "uint256[]",
          "name": "",
          "type": "uint256[]"
        }
      ],
      "payable": false,
      "stateMutability": "view",
      "type": "function"
    },
    {
      "constant": true,
      "inputs": [
        {
          "internalType": "uint256",
          "name": "ID",
          "type": "uint256"
        }
      ],
      "name": "fetchPermissionedDoctorOfEHR",
      "outputs": [
        {
          "internalType": "uint256[]",
          "name": "",
          "type": "uint256[]"
        },
        {
          "internalType": "uint256",
          "name": "",
          "type": "uint256"
        }
      ],
      "payable": false,
      "stateMutability": "view",
      "type": "function"
    },
    {
      "constant": false,
      "inputs": [
        {
          "internalType": "uint256",
          "name": "doctorID",
          "type": "uint256"
        },
        {
          "internalType": "uint256",
          "name": "EHRID",
          "type": "uint256"
        }
      ],
      "name": "addDoctorToEHR",
      "outputs": [],
      "payable": false,
      "stateMutability": "nonpayable",
      "type": "function"
    },
    {
      "constant": true,
      "inputs": [],
      "name": "verifyDoctor",
      "outputs": [
        {
          "internalType": "uint256",
          "name": "",
          "type": "uint256"
        }
      ],
      "payable": false,
      "stateMutability": "view",
      "type": "function"
    },
    {
      "constant": false,
      "inputs": [
        {
          "internalType": "uint256",
          "name": "EHRId",
          "type": "uint256"
        },
        {
          "internalType": "uint256",
          "name": "doctorID",
          "type": "uint256"
        }
      ],
      "name": "revokePermissionOfDoctorOnEHR",
      "outputs": [
        {
          "internalType": "bool",
          "name": "",
          "type": "bool"
        }
      ],
      "payable": false,
      "stateMutability": "nonpayable",
      "type": "function"
    },
    {
      "constant": false,
      "inputs": [
        {
          "internalType": "uint256",
          "name": "ID",
          "type": "uint256"
        }
      ],
      "name": "removeEHR",
      "outputs": [],
      "payable": false,
      "stateMutability": "nonpayable",
      "type": "function"
    }
  ],
  "bytecode": "0x6080604052600060075560006008553480156200001b57600080fd5b506040516200193c3803806200193c833981810160405262000041919081019062000210565b856000908051906020019062000059929190620000ee565b50846001908051906020019062000072929190620000ee565b5083600290805190602001906200008b929190620000ee565b5082600381905550816004819055508060058190555030600660006101000a81548173ffffffffffffffffffffffffffffffffffffffff021916908373ffffffffffffffffffffffffffffffffffffffff160217905550505050505050620003a6565b828054600181600116156101000203166002900490600052602060002090601f016020900481019282601f106200013157805160ff191683800117855562000162565b8280016001018555821562000162579182015b828111156200016157825182559160200191906001019062000144565b5b50905062000171919062000175565b5090565b6200019a91905b80821115620001965760008160009055506001016200017c565b5090565b90565b600082601f830112620001af57600080fd5b8151620001c6620001c0826200031f565b620002f1565b91508082526020830160208301858383011115620001e357600080fd5b620001f083828462000356565b50505092915050565b6000815190506200020a816200038c565b92915050565b60008060008060008060c087890312156200022a57600080fd5b600087015167ffffffffffffffff8111156200024557600080fd5b6200025389828a016200019d565b965050602087015167ffffffffffffffff8111156200027157600080fd5b6200027f89828a016200019d565b955050604087015167ffffffffffffffff8111156200029d57600080fd5b620002ab89828a016200019d565b9450506060620002be89828a01620001f9565b9350506080620002d189828a01620001f9565b92505060a0620002e489828a01620001f9565b9150509295509295509295565b6000604051905081810181811067ffffffffffffffff821117156200031557600080fd5b8060405250919050565b600067ffffffffffffffff8211156200033757600080fd5b601f19601f8301169050602081019050919050565b6000819050919050565b60005b838110156200037657808201518184015260208101905062000359565b8381111562000386576000848401525b50505050565b62000397816200034c565b8114620003a357600080fd5b50565b61158680620003b66000396000f3fe608060405234801561001057600080fd5b506004361061014d5760003560e01c8063850aaa78116100c3578063c3f9c6c41161007c578063c3f9c6c4146103d7578063ca267f28146103f3578063d5283e9a14610411578063e09ebd311461042f578063e27c4bfc1461044d578063f676f331146104695761014d565b8063850aaa78146102eb57806395fcd9dd146103095780639fcddf8614610327578063a5bfe0f014610357578063aada53a714610375578063b665c0d3146103a55761014d565b8063262a9dff11610115578063262a9dff14610222578063371c93b41461024057806357bb0829146102705780636270fcef146102935780637056784a146102b15780637316c911146102cf5761014d565b806306fdde03146101525780630a9edf4614610170578063158cb536146101a157806315dae03e146101d157806325607860146101ef575b600080fd5b61015a610487565b6040516101679190611272565b60405180910390f35b61018a6004803603610185919081019061102f565b610525565b604051610198929190611227565b60405180910390f35b6101bb60048036036101b6919081019061102f565b6105fb565b6040516101c891906113bd565b60405180910390f35b6101d961061b565b6040516101e691906113bd565b60405180910390f35b6102096004803603610204919081019061102f565b610625565b604051610219949392919061132c565b60405180910390f35b61022a610783565b60405161023791906113bd565b60405180910390f35b61025a6004803603610255919081019061102f565b610789565b6040516102679190611294565b60405180910390f35b610278610841565b60405161028a969594939291906112b6565b60405180910390f35b61029b610a41565b6040516102a891906113bd565b60405180910390f35b6102b9610a49565b6040516102c691906113bd565b60405180910390f35b6102e960048036036102e4919081019061102f565b610a4f565b005b6102f3610a8c565b6040516103009190611272565b60405180910390f35b610311610b2a565b60405161031e91906113bd565b60405180910390f35b610341600480360361033c91908101906110ac565b610b30565b60405161034e9190611257565b60405180910390f35b61035f610be0565b60405161036c91906113bd565b60405180910390f35b61038f600480360361038a91908101906110ac565b610be6565b60405161039c9190611257565b60405180910390f35b6103bf60048036036103ba919081019061102f565b610c65565b6040516103ce9392919061137f565b60405180910390f35b6103f160048036036103ec91908101906110ac565b610d27565b005b6103fb610d91565b60405161040891906113bd565b60405180910390f35b610419610d9b565b6040516104269190611272565b60405180910390f35b610437610e39565b60405161044491906113bd565b60405180910390f35b61046760048036036104629190810190611058565b610e3f565b005b610471610efb565b60405161047e919061120c565b60405180910390f35b60008054600181600116156101000203166002900480601f01602080910402602001604051908101604052809291908181526020018280546001816001161561010002031660029004801561051d5780601f106104f25761010080835404028352916020019161051d565b820191906000526020600020905b81548152906001019060200180831161050057829003601f168201915b505050505081565b60606000606060096000858152602001908152602001600020600301805490506040519080825280602002602001820160405280156105735781602001602082028038833980820191505090505b50905060008090505b60096000868152602001908152602001600020600301805490508110156105ee576009600086815260200190815260200160002060030181815481106105be57fe5b90600052602060002001548282815181106105d557fe5b602002602001018181525050808060010191505061057c565b5080849250925050915091565b600060096000838152602001908152602001600020600201549050919050565b6000600854905090565b60606000806060600960008681526020019081526020016000206000016009600087815260200190815260200160002060010154600960008881526020019081526020016000206002015460096000898152602001908152602001600020600301838054600181600116156101000203166002900480601f01602080910402602001604051908101604052809291908181526020018280546001816001161561010002031660029004801561071b5780601f106106f05761010080835404028352916020019161071b565b820191906000526020600020905b8154815290600101906020018083116106fe57829003601f168201915b505050505093508080548060200260200160405190810160405280929190818152602001828054801561076d57602002820191906000526020600020905b815481526020019060010190808311610759575b5050505050905093509350935093509193509193565b60035481565b6060600960008381526020019081526020016000206000018054600181600116156101000203166002900480601f0160208091040260200160405190810160405280929190818152602001828054600181600116156101000203166002900480156108355780601f1061080a57610100808354040283529160200191610835565b820191906000526020600020905b81548152906001019060200180831161081857829003601f168201915b50505050509050919050565b606080606060008060008060016002600354600454600554858054600181600116156101000203166002900480601f0160208091040260200160405190810160405280929190818152602001828054600181600116156101000203166002900480156108ee5780601f106108c3576101008083540402835291602001916108ee565b820191906000526020600020905b8154815290600101906020018083116108d157829003601f168201915b50505050509550848054600181600116156101000203166002900480601f01602080910402602001604051908101604052809291908181526020018280546001816001161561010002031660029004801561098a5780601f1061095f5761010080835404028352916020019161098a565b820191906000526020600020905b81548152906001019060200180831161096d57829003601f168201915b50505050509450838054600181600116156101000203166002900480601f016020809104026020016040519081016040528092919081815260200182805460018160011615610100020316600290048015610a265780601f106109fb57610100808354040283529160200191610a26565b820191906000526020600020905b815481529060010190602001808311610a0957829003601f168201915b50505050509350955095509550955095509550909192939495565b600042905090565b60045481565b60405180602001604052806000815250600960008381526020019081526020016000206000019080519060200190610a88929190610f21565b5050565b60028054600181600116156101000203166002900480601f016020809104026020016040519081016040528092919081815260200182805460018160011615610100020316600290048015610b225780601f10610af757610100808354040283529160200191610b22565b820191906000526020600020905b815481529060010190602001808311610b0557829003601f168201915b505050505081565b60085481565b600080600090505b6009600085815260200190815260200160002060030180549050811015610bd45782600960008681526020019081526020016000206003018281548110610b7b57fe5b90600052602060002001541415610bc7576000600960008681526020019081526020016000206003018281548110610baf57fe5b90600052602060002001819055506001915050610bda565b8080600101915050610b38565b50600090505b92915050565b60055481565b600080600090505b6009600085815260200190815260200160002060030180549050811015610c595782600960008681526020019081526020016000206003018281548110610c3157fe5b90600052602060002001541415610c4c576001915050610c5f565b8080600101915050610bee565b50600090505b92915050565b6009602052806000526040600020600091509050806000018054600181600116156101000203166002900480601f016020809104026020016040519081016040528092919081815260200182805460018160011615610100020316600290048015610d115780601f10610ce657610100808354040283529160200191610d11565b820191906000526020600020905b815481529060010190602001808311610cf457829003601f168201915b5050505050908060010154908060020154905083565b6009600082815260200190815260200160002060030182908060018154018082558091505090600182039060005260206000200160009091929091909150555060096000828152602001908152602001600020600201600081548092919060010191905055505050565b6000600754905090565b60018054600181600116156101000203166002900480601f016020809104026020016040519081016040528092919081815260200182805460018160011615610100020316600290048015610e315780601f10610e0657610100808354040283529160200191610e31565b820191906000526020600020905b815481529060010190602001808311610e1457829003601f168201915b505050505081565b60075481565b81600960006007548152602001908152602001600020600101819055506000600960006007548152602001908152602001600020600201819055506009600060075481526020019081526020016000206003018290806001815401808255809150509060018203906000526020600020016000909192909190915055508060096000600760008154809291906001019190505581526020019081526020016000206000019080519060200190610ef6929190610f21565b505050565b600660009054906101000a900473ffffffffffffffffffffffffffffffffffffffff1681565b828054600181600116156101000203166002900490600052602060002090601f016020900481019282601f10610f6257805160ff1916838001178555610f90565b82800160010185558215610f90579182015b82811115610f8f578251825591602001919060010190610f74565b5b509050610f9d9190610fa1565b5090565b610fc391905b80821115610fbf576000816000905550600101610fa7565b5090565b90565b600082601f830112610fd757600080fd5b8135610fea610fe582611405565b6113d8565b9150808252602083016020830185838301111561100657600080fd5b6110118382846114d9565b50505092915050565b6000813590506110298161152c565b92915050565b60006020828403121561104157600080fd5b600061104f8482850161101a565b91505092915050565b6000806040838503121561106b57600080fd5b60006110798582860161101a565b925050602083013567ffffffffffffffff81111561109657600080fd5b6110a285828601610fc6565b9150509250929050565b600080604083850312156110bf57600080fd5b60006110cd8582860161101a565b92505060206110de8582860161101a565b9150509250929050565b60006110f483836111ee565b60208301905092915050565b61110981611491565b82525050565b600061111a82611441565b611124818561146f565b935061112f83611431565b8060005b8381101561116057815161114788826110e8565b975061115283611462565b925050600181019050611133565b5085935050505092915050565b611176816114a3565b82525050565b600061118782611457565b6111918185611480565b93506111a18185602086016114e8565b6111aa8161151b565b840191505092915050565b60006111c08261144c565b6111ca8185611480565b93506111da8185602086016114e8565b6111e38161151b565b840191505092915050565b6111f7816114cf565b82525050565b611206816114cf565b82525050565b60006020820190506112216000830184611100565b92915050565b60006040820190508181036000830152611241818561110f565b905061125060208301846111fd565b9392505050565b600060208201905061126c600083018461116d565b92915050565b6000602082019050818103600083015261128c81846111b5565b905092915050565b600060208201905081810360008301526112ae818461117c565b905092915050565b600060c08201905081810360008301526112d0818961117c565b905081810360208301526112e4818861117c565b905081810360408301526112f8818761117c565b905061130760608301866111fd565b61131460808301856111fd565b61132160a08301846111fd565b979650505050505050565b60006080820190508181036000830152611346818761117c565b905061135560208301866111fd565b61136260408301856111fd565b8181036060830152611374818461110f565b905095945050505050565b6000606082019050818103600083015261139981866111b5565b90506113a860208301856111fd565b6113b560408301846111fd565b949350505050565b60006020820190506113d260008301846111fd565b92915050565b6000604051905081810181811067ffffffffffffffff821117156113fb57600080fd5b8060405250919050565b600067ffffffffffffffff82111561141c57600080fd5b601f19601f8301169050602081019050919050565b6000819050602082019050919050565b600081519050919050565b600081519050919050565b600081519050919050565b6000602082019050919050565b600082825260208201905092915050565b600082825260208201905092915050565b600061149c826114af565b9050919050565b60008115159050919050565b600073ffffffffffffffffffffffffffffffffffffffff82169050919050565b6000819050919050565b82818337600083830152505050565b60005b838110156115065780820151818401526020810190506114eb565b83811115611515576000848401525b50505050565b6000601f19601f8301169050919050565b611535816114cf565b811461154057600080fd5b5056fea365627a7a72315820c43c4ee03f1165718147fd3d3a07e09b47ae7094747705699df80999cace55ef6c6578706572696d656e74616cf564736f6c63430005100040",
  "source": "pragma solidity >=0.4.25;\npragma experimental ABIEncoderV2;\n\n\ncontract Patient {\n    // Personal Details - Minimalistic details required for creating block\n\n    string public name;\n    string public identificationProof;\n    string public addressProof;\n    uint256 public age;\n    uint256 public heightInCms;\n    uint256 public weightInKgs;\n    address public publicAddress;\n    uint256 public noOfRecords = 0;\n    uint256 public typeOfRec = 0;\n\n    // Store structure of EHR as a mapping\n\n    struct EHR {\n        string fileLocation;\n        uint256 byDoctorID;\n        uint256 count;\n        uint256[] permissionedDoctors;\n        // uint256 permissionedDoctors;\n    }\n\n    mapping(uint256 => EHR) public healthRecords;\n\n    // Functions in Patient\n\n    constructor(\n        string memory n,\n        string memory idProof,\n        string memory addrProof,\n        uint256 a,\n        uint256 h,\n        uint256 w\n    ) public {\n        name = n;\n        identificationProof = idProof;\n        addressProof = addrProof;\n        age = a;\n        heightInCms = h;\n        weightInKgs = w;\n        publicAddress = address(this);\n    }\n\n    // Get Type\n\n    function getType() public view returns (uint256) {\n        return typeOfRec;\n    }\n\n    // Get location of file\n\n    function getFileLocation(uint256 id)\n        external\n        view\n        returns (string memory fileLoc)\n    {\n        return healthRecords[id].fileLocation;\n    }\n\n    // Check if doctor has the required permissions\n\n    function checkForPermissions(uint256 id, uint256 doctorID)\n        external\n        view\n        returns (bool ans)\n    {\n        for (\n            uint256 i = 0;\n            i < healthRecords[id].permissionedDoctors.length;\n            i++\n        ) {\n            if (healthRecords[id].permissionedDoctors[i] == doctorID) {\n                return true;\n            }\n        }\n        return false;\n    }\n\n    function getRecordCount() public view returns (uint256) {\n        return noOfRecords;\n    }\n\n    // Get no of records in that EHR\n\n    function getEHRRecordCount(uint256 EHRId) public view returns (uint256) {\n        return healthRecords[EHRId].count;\n    }\n\n    // Create a new health record\n\n    function createNewRecord(uint256 doctorID, string memory fileLocation)\n        public\n    {\n        healthRecords[noOfRecords].byDoctorID = doctorID;\n        healthRecords[noOfRecords].count = 0;\n        healthRecords[noOfRecords].permissionedDoctors.push(doctorID);\n        healthRecords[noOfRecords++].fileLocation = fileLocation;\n    }\n\n    // Fetching minimalistic details of Patient\n\n    function fetchDetailsOfPatient()\n        public\n        view\n        returns (\n            string memory,\n            string memory,\n            string memory,\n            uint256,\n            uint256,\n            uint256\n        )\n    {\n        return (\n            name,\n            identificationProof,\n            addressProof,\n            age,\n            heightInCms,\n            weightInKgs\n        );\n    }\n\n    // Fetching details of EHR given ID of EHR\n\n    function fetchDetailsOfEHR(uint256 ID)\n        public\n        view\n        returns (string memory, uint256, uint256, uint256[] memory)\n    {\n        return (\n            healthRecords[ID].fileLocation,\n            healthRecords[ID].byDoctorID,\n            healthRecords[ID].count,\n            healthRecords[ID].permissionedDoctors\n        );\n    }\n\n    // Fetching doctor of EHR given ID of EHR\n\n    function fetchPermissionedDoctorOfEHR(uint256 ID)\n        public\n        view\n        returns (uint256[] memory, uint256)\n    {\n        uint256[] memory doctors = new uint256[](\n            healthRecords[ID].permissionedDoctors.length\n        );\n        for (\n            uint256 i = 0;\n            i < healthRecords[ID].permissionedDoctors.length;\n            i++\n        ) {\n            doctors[i] = healthRecords[ID].permissionedDoctors[i];\n        }\n        return (doctors, ID);\n    }\n\n    // Add new doctor in permission field\n\n    function addDoctorToEHR(uint256 doctorID, uint256 EHRID) public {\n        healthRecords[EHRID].permissionedDoctors.push(doctorID);\n        healthRecords[EHRID].count++;\n    }\n\n    // Verification function\n\n    function verifyDoctor() public view returns (uint256) {\n        return now;\n    }\n\n    // Revoke Permissions of Doctor\n\n    function revokePermissionOfDoctorOnEHR(uint256 EHRId, uint256 doctorID)\n        public\n        returns (bool)\n    {\n        // healthRecords[EHRId].permissionedDoctors[doctorID] = 0;\n\n        for (\n            uint256 i = 0;\n            i < healthRecords[EHRId].permissionedDoctors.length;\n            i++\n        ) {\n            if (healthRecords[EHRId].permissionedDoctors[i] == doctorID) {\n                healthRecords[EHRId].permissionedDoctors[i] = 0;\n                /* if (i < healthRecords[EHRId].permissionedDoctors.length - 1) {\n                    healthRecords[EHRId]\n                        .permissionedDoctors[i] = healthRecords[EHRId]\n                        .permissionedDoctors[healthRecords[EHRId]\n                        .permissionedDoctors\n                        .length - 1];\n                } else {\n                    delete healthRecords[EHRId].permissionedDoctors[i];\n                } */\n\n                return true;\n            }\n        }\n\n        return false;\n    }\n\n    // Remove EHR\n\n    function removeEHR(uint256 ID) public {\n        healthRecords[ID].fileLocation = \"\";\n    }\n}\n\n\ncontract Consensus {\n    uint256 typeOfRec = 2;\n\n    struct instituteAddress {\n        string name;\n        bool active;\n        address medicalInstituteAddress;\n        uint256 lastModified;\n    }\n\n    // Get Type\n\n    function getType() public view returns (uint256) {\n        return typeOfRec;\n    }\n\n    // Get no of institutes\n\n    function getNoOfInstitutes() public view returns (uint256) {\n        return noOfAlloted;\n    }\n\n    // Keeps an array of all medical institutes and their last modified flag\n\n    mapping(uint256 => instituteAddress) public publicAddresses;\n    uint256 noOfAlloted = 0;\n\n    // Methods\n\n    // Registration of medical institute\n\n    function registerMedicalInstitute(string memory name, address publicAddress)\n        public\n        returns (uint256 id)\n    {\n        uint256 num = noOfAlloted;\n        publicAddresses[noOfAlloted].name = name;\n        publicAddresses[noOfAlloted].medicalInstituteAddress = publicAddress;\n        publicAddresses[noOfAlloted++].lastModified = now;\n        return num;\n    }\n\n    // Changes last modified flag of Medical Institute\n\n    function changeLastModified(uint256 time, uint256 id) public {\n        publicAddresses[id].lastModified = time;\n    }\n\n    function getAllInstitutes(uint256 i)\n        public\n        view\n        returns (instituteAddress memory)\n    {\n        return publicAddresses[i];\n    }\n\n    // Verification of OTP\n\n    function verify(uint256 num1, uint256 num2) public pure returns (bool) {\n        if (num1 == num2) {\n            return true;\n        }\n        return false;\n    }\n\n    // Deactivate Institute\n\n    function deactivateInstitute(uint256 id) public {\n        publicAddresses[id].active = false;\n    }\n}\n\n\ncontract MedicalInstitute {\n    Consensus consensusAddress;\n    bool active = true;\n    address conAddress;\n    uint256 typeOfRec = 1;\n    uint256 public myID;\n    string public myName;\n    uint256 noOfDocs = 1;\n\n    struct Doctor {\n        string name;\n        bool active;\n        string specialization;\n    }\n\n    mapping(uint256 => Doctor) public Doctors;\n\n    // Get type\n\n    function getType() public view returns (uint256) {\n        return typeOfRec;\n    }\n\n    // Constructor to get ID of medical institute\n\n    constructor(address cAddress, string memory n) public {\n        conAddress = cAddress;\n        consensusAddress = Consensus(cAddress);\n        myName = n;\n        myID = consensusAddress.registerMedicalInstitute(n, address(this));\n    }\n\n    // Register a doctor\n\n    function registerDoctor(string memory n, string memory spec)\n        public\n        returns (uint256)\n    {\n        uint256 num = noOfDocs;\n        Doctors[noOfDocs].name = n;\n        Doctors[noOfDocs].active = true;\n        Doctors[noOfDocs++].specialization = spec;\n        return num;\n    }\n\n    // Get Details of Medical Institute\n    function getDetails()\n        public\n        view\n        returns (uint256, string memory, address)\n    {\n        return (myID, myName, conAddress);\n    }\n\n    function getNoOfDocs() public view returns (uint256) {\n        return noOfDocs;\n    }\n\n    // Get details of a doctor\n\n    function getDetailsOfDoctor(uint256 _ID)\n        public\n        view\n        returns (string memory, string memory)\n    {\n        if (Doctors[_ID].active) {\n            return (Doctors[_ID].name, Doctors[_ID].specialization);\n        }\n        return (\"\", \"\");\n    }\n\n    // Check if doctor is active\n\n    function checkValidityOfDoctor(uint256 ID) public view returns (bool) {\n        return Doctors[ID].active;\n    }\n\n    // Updating Consensus after some activity\n\n    function updateLastModified() public {\n        consensusAddress.changeLastModified(now, myID);\n    }\n\n    function addPermissions(\n        address patientAddress,\n        uint256 EHRId,\n        uint256 doctorID\n    ) public {\n        Patient p = Patient(patientAddress);\n        p.addDoctorToEHR(doctorID, EHRId);\n    }\n\n    function getFileLocation(uint256 EHRId, address patientAddress)\n        public\n        view\n        returns (string memory)\n    {\n        Patient p = Patient(patientAddress);\n        return p.getFileLocation(EHRId);\n    }\n\n    function requestForAccess() public view returns (bool) {\n        uint256 OTP = now;\n        bool res = consensusAddress.verify(OTP, OTP);\n        return res;\n    }\n\n    // Revoke Doctor\n\n    function revokeDoctor(uint256 docID) public {\n        Doctors[docID].active = false;\n    }\n\n    // Revoke Medical Institute\n\n    function revokeMedicalInst() public {\n        active = false;\n    }\n\n    // Check if medical institute is active\n\n    function isActive() public view returns (bool) {\n        return active;\n    }\n\n    // Function to get ID of Doctor\n\n    function getIDOfDoctor(string memory name) public view returns (uint256) {\n        for (uint256 i = 0; i < noOfDocs; i++) {\n            if (\n                keccak256(abi.encodePacked((Doctors[i].name))) ==\n                keccak256(abi.encodePacked((name)))\n            ) {\n                return i;\n            }\n        }\n        return 0;\n    }\n}\n",
  "sourcePath": "/home/badminton-bhivpa/Education/EDI/workspace/contracts/TAAR.sol",
  "compiler": {
    "name": "solc",
    "version": "0.5.16+commit.9c3226ce.Emscripten.clang"
  },
  "schemaVersion": "3.1.0",
  "updatedAt": "2020-04-30T06:22:49.574Z",
  "networkType": "ethereum",
  "devdoc": {
    "methods": {}
  },
  "userdoc": {
    "methods": {}
  }
}