{
  "contractName": "Patient",
  "abi": [
    {
      "inputs": [
        {
          "internalType": "string",
          "name": "n",
          "type": "string"
        },
        {
          "internalType": "string",
          "name": "idProof",
          "type": "string"
        },
        {
          "internalType": "string",
          "name": "addrProof",
          "type": "string"
        },
        {
          "internalType": "uint256",
          "name": "a",
          "type": "uint256"
        },
        {
          "internalType": "uint256",
          "name": "h",
          "type": "uint256"
        },
        {
          "internalType": "uint256",
          "name": "w",
          "type": "uint256"
        }
      ],
      "payable": false,
      "stateMutability": "nonpayable",
      "type": "constructor"
    },
    {
      "constant": true,
      "inputs": [],
      "name": "addressProof",
      "outputs": [
        {
          "internalType": "string",
          "name": "",
          "type": "string"
        }
      ],
      "payable": false,
      "stateMutability": "view",
      "type": "function"
    },
    {
      "constant": true,
      "inputs": [],
      "name": "age",
      "outputs": [
        {
          "internalType": "uint256",
          "name": "",
          "type": "uint256"
        }
      ],
      "payable": false,
      "stateMutability": "view",
      "type": "function"
    },
    {
      "constant": true,
      "inputs": [
        {
          "internalType": "uint256",
          "name": "",
          "type": "uint256"
        }
      ],
      "name": "healthRecords",
      "outputs": [
        {
          "internalType": "string",
          "name": "fileLocation",
          "type": "string"
        },
        {
          "internalType": "uint256",
          "name": "byDoctorID",
          "type": "uint256"
        },
        {
          "internalType": "uint256",
          "name": "count",
          "type": "uint256"
        }
      ],
      "payable": false,
      "stateMutability": "view",
      "type": "function"
    },
    {
      "constant": true,
      "inputs": [],
      "name": "heightInCms",
      "outputs": [
        {
          "internalType": "uint256",
          "name": "",
          "type": "uint256"
        }
      ],
      "payable": false,
      "stateMutability": "view",
      "type": "function"
    },
    {
      "constant": true,
      "inputs": [],
      "name": "identificationProof",
      "outputs": [
        {
          "internalType": "string",
          "name": "",
          "type": "string"
        }
      ],
      "payable": false,
      "stateMutability": "view",
      "type": "function"
    },
    {
      "constant": true,
      "inputs": [],
      "name": "name",
      "outputs": [
        {
          "internalType": "string",
          "name": "",
          "type": "string"
        }
      ],
      "payable": false,
      "stateMutability": "view",
      "type": "function"
    },
    {
      "constant": true,
      "inputs": [],
      "name": "noOfRecords",
      "outputs": [
        {
          "internalType": "uint256",
          "name": "",
          "type": "uint256"
        }
      ],
      "payable": false,
      "stateMutability": "view",
      "type": "function"
    },
    {
      "constant": true,
      "inputs": [],
      "name": "publicAddress",
      "outputs": [
        {
          "internalType": "address",
          "name": "",
          "type": "address"
        }
      ],
      "payable": false,
      "stateMutability": "view",
      "type": "function"
    },
    {
      "constant": true,
      "inputs": [],
      "name": "typeOfRec",
      "outputs": [
        {
          "internalType": "uint256",
          "name": "",
          "type": "uint256"
        }
      ],
      "payable": false,
      "stateMutability": "view",
      "type": "function"
    },
    {
      "constant": true,
      "inputs": [],
      "name": "weightInKgs",
      "outputs": [
        {
          "internalType": "uint256",
          "name": "",
          "type": "uint256"
        }
      ],
      "payable": false,
      "stateMutability": "view",
      "type": "function"
    },
    {
      "constant": true,
      "inputs": [],
      "name": "getType",
      "outputs": [
        {
          "internalType": "uint256",
          "name": "",
          "type": "uint256"
        }
      ],
      "payable": false,
      "stateMutability": "view",
      "type": "function"
    },
    {
      "constant": true,
      "inputs": [
        {
          "internalType": "uint256",
          "name": "id",
          "type": "uint256"
        }
      ],
      "name": "getFileLocation",
      "outputs": [
        {
          "internalType": "string",
          "name": "fileLoc",
          "type": "string"
        }
      ],
      "payable": false,
      "stateMutability": "view",
      "type": "function"
    },
    {
      "constant": true,
      "inputs": [
        {
          "internalType": "uint256",
          "name": "id",
          "type": "uint256"
        },
        {
          "internalType": "uint256",
          "name": "doctorID",
          "type": "uint256"
        }
      ],
      "name": "checkForPermissions",
      "outputs": [
        {
          "internalType": "bool",
          "name": "ans",
          "type": "bool"
        }
      ],
      "payable": false,
      "stateMutability": "view",
      "type": "function"
    },
    {
      "constant": true,
      "inputs": [],
      "name": "getRecordCount",
      "outputs": [
        {
          "internalType": "uint256",
          "name": "",
          "type": "uint256"
        }
      ],
      "payable": false,
      "stateMutability": "view",
      "type": "function"
    },
    {
      "constant": true,
      "inputs": [
        {
          "internalType": "uint256",
          "name": "EHRId",
          "type": "uint256"
        }
      ],
      "name": "getEHRRecordCount",
      "outputs": [
        {
          "internalType": "uint256",
          "name": "",
          "type": "uint256"
        }
      ],
      "payable": false,
      "stateMutability": "view",
      "type": "function"
    },
    {
      "constant": false,
      "inputs": [
        {
          "internalType": "uint256",
          "name": "doctorID",
          "type": "uint256"
        },
        {
          "internalType": "string",
          "name": "fileLocation",
          "type": "string"
        }
      ],
      "name": "createNewRecord",
      "outputs": [],
      "payable": false,
      "stateMutability": "nonpayable",
      "type": "function"
    },
    {
      "constant": true,
      "inputs": [],
      "name": "fetchDetailsOfPatient",
      "outputs": [
        {
          "internalType": "string",
          "name": "",
          "type": "string"
        },
        {
          "internalType": "string",
          "name": "",
          "type": "string"
        },
        {
          "internalType": "string",
          "name": "",
          "type": "string"
        },
        {
          "internalType": "uint256",
          "name": "",
          "type": "uint256"
        },
        {
          "internalType": "uint256",
          "name": "",
          "type": "uint256"
        },
        {
          "internalType": "uint256",
          "name": "",
          "type": "uint256"
        }
      ],
      "payable": false,
      "stateMutability": "view",
      "type": "function"
    },
    {
      "constant": true,
      "inputs": [
        {
          "internalType": "uint256",
          "name": "ID",
          "type": "uint256"
        }
      ],
      "name": "fetchDetailsOfEHR",
      "outputs": [
        {
          "internalType": "string",
          "name": "",
          "type": "string"
        },
        {
          "internalType": "uint256",
          "name": "",
          "type": "uint256"
        },
        {
          "internalType": "uint256",
          "name": "",
          "type": "uint256"
        }
      ],
      "payable": false,
      "stateMutability": "view",
      "type": "function"
    },
    {
      "constant": true,
      "inputs": [
        {
          "internalType": "uint256",
          "name": "ID",
          "type": "uint256"
        }
      ],
      "name": "fetchPermissionedDoctorOfEHR",
      "outputs": [
        {
          "internalType": "uint256[]",
          "name": "",
          "type": "uint256[]"
        },
        {
          "internalType": "uint256",
          "name": "",
          "type": "uint256"
        }
      ],
      "payable": false,
      "stateMutability": "view",
      "type": "function"
    },
    {
      "constant": false,
      "inputs": [
        {
          "internalType": "uint256",
          "name": "doctorID",
          "type": "uint256"
        },
        {
          "internalType": "uint256",
          "name": "EHRID",
          "type": "uint256"
        }
      ],
      "name": "addDoctorToEHR",
      "outputs": [],
      "payable": false,
      "stateMutability": "nonpayable",
      "type": "function"
    },
    {
      "constant": true,
      "inputs": [],
      "name": "verifyDoctor",
      "outputs": [
        {
          "internalType": "uint256",
          "name": "",
          "type": "uint256"
        }
      ],
      "payable": false,
      "stateMutability": "view",
      "type": "function"
    },
    {
      "constant": false,
      "inputs": [
        {
          "internalType": "uint256",
          "name": "EHRId",
          "type": "uint256"
        },
        {
          "internalType": "uint256",
          "name": "doctorID",
          "type": "uint256"
        }
      ],
      "name": "revokePermissionOfDoctorOnEHR",
      "outputs": [
        {
          "internalType": "bool",
          "name": "",
          "type": "bool"
        }
      ],
      "payable": false,
      "stateMutability": "nonpayable",
      "type": "function"
    }
  ],
  "bytecode": "0x6080604052600060075560006008553480156200001b57600080fd5b506040516200185638038062001856833981810160405262000041919081019062000210565b856000908051906020019062000059929190620000ee565b50846001908051906020019062000072929190620000ee565b5083600290805190602001906200008b929190620000ee565b5082600381905550816004819055508060058190555030600660006101000a81548173ffffffffffffffffffffffffffffffffffffffff021916908373ffffffffffffffffffffffffffffffffffffffff160217905550505050505050620003a6565b828054600181600116156101000203166002900490600052602060002090601f016020900481019282601f106200013157805160ff191683800117855562000162565b8280016001018555821562000162579182015b828111156200016157825182559160200191906001019062000144565b5b50905062000171919062000175565b5090565b6200019a91905b80821115620001965760008160009055506001016200017c565b5090565b90565b600082601f830112620001af57600080fd5b8151620001c6620001c0826200031f565b620002f1565b91508082526020830160208301858383011115620001e357600080fd5b620001f083828462000356565b50505092915050565b6000815190506200020a816200038c565b92915050565b60008060008060008060c087890312156200022a57600080fd5b600087015167ffffffffffffffff8111156200024557600080fd5b6200025389828a016200019d565b965050602087015167ffffffffffffffff8111156200027157600080fd5b6200027f89828a016200019d565b955050604087015167ffffffffffffffff8111156200029d57600080fd5b620002ab89828a016200019d565b9450506060620002be89828a01620001f9565b9350506080620002d189828a01620001f9565b92505060a0620002e489828a01620001f9565b9150509295509295509295565b6000604051905081810181811067ffffffffffffffff821117156200031557600080fd5b8060405250919050565b600067ffffffffffffffff8211156200033757600080fd5b601f19601f8301169050602081019050919050565b6000819050919050565b60005b838110156200037657808201518184015260208101905062000359565b8381111562000386576000848401525b50505050565b62000397816200034c565b8114620003a357600080fd5b50565b6114a080620003b66000396000f3fe608060405234801561001057600080fd5b50600436106101425760003560e01c806395fcd9dd116100b8578063c3f9c6c41161007c578063c3f9c6c4146103af578063ca267f28146103cb578063d5283e9a146103e9578063e09ebd3114610407578063e27c4bfc14610425578063f676f3311461044157610142565b806395fcd9dd146102e15780639fcddf86146102ff578063a5bfe0f01461032f578063aada53a71461034d578063b665c0d31461037d57610142565b8063262a9dff1161010a578063262a9dff14610216578063371c93b41461023457806357bb0829146102645780636270fcef146102875780637056784a146102a5578063850aaa78146102c357610142565b806306fdde03146101475780630a9edf4614610165578063158cb5361461019657806315dae03e146101c657806325607860146101e4575b600080fd5b61014f61045f565b60405161015c91906111a1565b60405180910390f35b61017f600480360361017a9190810190610f5e565b6104fd565b60405161018d929190611156565b60405180910390f35b6101b060048036036101ab9190810190610f5e565b6105d3565b6040516101bd91906112d7565b60405180910390f35b6101ce6105f3565b6040516101db91906112d7565b60405180910390f35b6101fe60048036036101f99190810190610f5e565b6105fd565b60405161020d9392919061125b565b60405180910390f35b61021e6106ef565b60405161022b91906112d7565b60405180910390f35b61024e60048036036102499190810190610f5e565b6106f5565b60405161025b91906111c3565b60405180910390f35b61026c6107ad565b60405161027e969594939291906111e5565b60405180910390f35b61028f6109ad565b60405161029c91906112d7565b60405180910390f35b6102ad6109b5565b6040516102ba91906112d7565b60405180910390f35b6102cb6109bb565b6040516102d891906111a1565b60405180910390f35b6102e9610a59565b6040516102f691906112d7565b60405180910390f35b61031960048036036103149190810190610fdb565b610a5f565b6040516103269190611186565b60405180910390f35b610337610b0f565b60405161034491906112d7565b60405180910390f35b61036760048036036103629190810190610fdb565b610b15565b6040516103749190611186565b60405180910390f35b61039760048036036103929190810190610f5e565b610b94565b6040516103a693929190611299565b60405180910390f35b6103c960048036036103c49190810190610fdb565b610c56565b005b6103d3610cc0565b6040516103e091906112d7565b60405180910390f35b6103f1610cca565b6040516103fe91906111a1565b60405180910390f35b61040f610d68565b60405161041c91906112d7565b60405180910390f35b61043f600480360361043a9190810190610f87565b610d6e565b005b610449610e2a565b604051610456919061113b565b60405180910390f35b60008054600181600116156101000203166002900480601f0160208091040260200160405190810160405280929190818152602001828054600181600116156101000203166002900480156104f55780601f106104ca576101008083540402835291602001916104f5565b820191906000526020600020905b8154815290600101906020018083116104d857829003601f168201915b505050505081565b606060006060600960008581526020019081526020016000206003018054905060405190808252806020026020018201604052801561054b5781602001602082028038833980820191505090505b50905060008090505b60096000868152602001908152602001600020600301805490508110156105c65760096000868152602001908152602001600020600301818154811061059657fe5b90600052602060002001548282815181106105ad57fe5b6020026020010181815250508080600101915050610554565b5080849250925050915091565b600060096000838152602001908152602001600020600201549050919050565b6000600854905090565b60606000806009600085815260200190815260200160002060000160096000868152602001908152602001600020600101546009600087815260200190815260200160002060020154828054600181600116156101000203166002900480601f0160208091040260200160405190810160405280929190818152602001828054600181600116156101000203166002900480156106db5780601f106106b0576101008083540402835291602001916106db565b820191906000526020600020905b8154815290600101906020018083116106be57829003601f168201915b505050505092509250925092509193909250565b60035481565b6060600960008381526020019081526020016000206000018054600181600116156101000203166002900480601f0160208091040260200160405190810160405280929190818152602001828054600181600116156101000203166002900480156107a15780601f10610776576101008083540402835291602001916107a1565b820191906000526020600020905b81548152906001019060200180831161078457829003601f168201915b50505050509050919050565b606080606060008060008060016002600354600454600554858054600181600116156101000203166002900480601f01602080910402602001604051908101604052809291908181526020018280546001816001161561010002031660029004801561085a5780601f1061082f5761010080835404028352916020019161085a565b820191906000526020600020905b81548152906001019060200180831161083d57829003601f168201915b50505050509550848054600181600116156101000203166002900480601f0160208091040260200160405190810160405280929190818152602001828054600181600116156101000203166002900480156108f65780601f106108cb576101008083540402835291602001916108f6565b820191906000526020600020905b8154815290600101906020018083116108d957829003601f168201915b50505050509450838054600181600116156101000203166002900480601f0160208091040260200160405190810160405280929190818152602001828054600181600116156101000203166002900480156109925780601f1061096757610100808354040283529160200191610992565b820191906000526020600020905b81548152906001019060200180831161097557829003601f168201915b50505050509350955095509550955095509550909192939495565b600042905090565b60045481565b60028054600181600116156101000203166002900480601f016020809104026020016040519081016040528092919081815260200182805460018160011615610100020316600290048015610a515780601f10610a2657610100808354040283529160200191610a51565b820191906000526020600020905b815481529060010190602001808311610a3457829003601f168201915b505050505081565b60085481565b600080600090505b6009600085815260200190815260200160002060030180549050811015610b035782600960008681526020019081526020016000206003018281548110610aaa57fe5b90600052602060002001541415610af6576000600960008681526020019081526020016000206003018281548110610ade57fe5b90600052602060002001819055506001915050610b09565b8080600101915050610a67565b50600090505b92915050565b60055481565b600080600090505b6009600085815260200190815260200160002060030180549050811015610b885782600960008681526020019081526020016000206003018281548110610b6057fe5b90600052602060002001541415610b7b576001915050610b8e565b8080600101915050610b1d565b50600090505b92915050565b6009602052806000526040600020600091509050806000018054600181600116156101000203166002900480601f016020809104026020016040519081016040528092919081815260200182805460018160011615610100020316600290048015610c405780601f10610c1557610100808354040283529160200191610c40565b820191906000526020600020905b815481529060010190602001808311610c2357829003601f168201915b5050505050908060010154908060020154905083565b6009600082815260200190815260200160002060030182908060018154018082558091505090600182039060005260206000200160009091929091909150555060096000828152602001908152602001600020600201600081548092919060010191905055505050565b6000600754905090565b60018054600181600116156101000203166002900480601f016020809104026020016040519081016040528092919081815260200182805460018160011615610100020316600290048015610d605780601f10610d3557610100808354040283529160200191610d60565b820191906000526020600020905b815481529060010190602001808311610d4357829003601f168201915b505050505081565b60075481565b81600960006007548152602001908152602001600020600101819055506000600960006007548152602001908152602001600020600201819055506009600060075481526020019081526020016000206003018290806001815401808255809150509060018203906000526020600020016000909192909190915055508060096000600760008154809291906001019190505581526020019081526020016000206000019080519060200190610e25929190610e50565b505050565b600660009054906101000a900473ffffffffffffffffffffffffffffffffffffffff1681565b828054600181600116156101000203166002900490600052602060002090601f016020900481019282601f10610e9157805160ff1916838001178555610ebf565b82800160010185558215610ebf579182015b82811115610ebe578251825591602001919060010190610ea3565b5b509050610ecc9190610ed0565b5090565b610ef291905b80821115610eee576000816000905550600101610ed6565b5090565b90565b600082601f830112610f0657600080fd5b8135610f19610f148261131f565b6112f2565b91508082526020830160208301858383011115610f3557600080fd5b610f408382846113f3565b50505092915050565b600081359050610f5881611446565b92915050565b600060208284031215610f7057600080fd5b6000610f7e84828501610f49565b91505092915050565b60008060408385031215610f9a57600080fd5b6000610fa885828601610f49565b925050602083013567ffffffffffffffff811115610fc557600080fd5b610fd185828601610ef5565b9150509250929050565b60008060408385031215610fee57600080fd5b6000610ffc85828601610f49565b925050602061100d85828601610f49565b9150509250929050565b6000611023838361111d565b60208301905092915050565b611038816113ab565b82525050565b60006110498261135b565b6110538185611389565b935061105e8361134b565b8060005b8381101561108f5781516110768882611017565b97506110818361137c565b925050600181019050611062565b5085935050505092915050565b6110a5816113bd565b82525050565b60006110b682611371565b6110c0818561139a565b93506110d0818560208601611402565b6110d981611435565b840191505092915050565b60006110ef82611366565b6110f9818561139a565b9350611109818560208601611402565b61111281611435565b840191505092915050565b611126816113e9565b82525050565b611135816113e9565b82525050565b6000602082019050611150600083018461102f565b92915050565b60006040820190508181036000830152611170818561103e565b905061117f602083018461112c565b9392505050565b600060208201905061119b600083018461109c565b92915050565b600060208201905081810360008301526111bb81846110e4565b905092915050565b600060208201905081810360008301526111dd81846110ab565b905092915050565b600060c08201905081810360008301526111ff81896110ab565b9050818103602083015261121381886110ab565b9050818103604083015261122781876110ab565b9050611236606083018661112c565b611243608083018561112c565b61125060a083018461112c565b979650505050505050565b6000606082019050818103600083015261127581866110ab565b9050611284602083018561112c565b611291604083018461112c565b949350505050565b600060608201905081810360008301526112b381866110e4565b90506112c2602083018561112c565b6112cf604083018461112c565b949350505050565b60006020820190506112ec600083018461112c565b92915050565b6000604051905081810181811067ffffffffffffffff8211171561131557600080fd5b8060405250919050565b600067ffffffffffffffff82111561133657600080fd5b601f19601f8301169050602081019050919050565b6000819050602082019050919050565b600081519050919050565b600081519050919050565b600081519050919050565b6000602082019050919050565b600082825260208201905092915050565b600082825260208201905092915050565b60006113b6826113c9565b9050919050565b60008115159050919050565b600073ffffffffffffffffffffffffffffffffffffffff82169050919050565b6000819050919050565b82818337600083830152505050565b60005b83811015611420578082015181840152602081019050611405565b8381111561142f576000848401525b50505050565b6000601f19601f8301169050919050565b61144f816113e9565b811461145a57600080fd5b5056fea365627a7a72315820287d05c692b2300115c282fb511abaf52d27a40fb809c0791b86fb287a0099e66c6578706572696d656e74616cf564736f6c63430005100040",
  "source": "pragma solidity >=0.4.25;\npragma experimental ABIEncoderV2;\n\n\ncontract Patient {\n    // Personal Details - Minimalistic details required for creating block\n\n    string public name;\n    string public identificationProof;\n    string public addressProof;\n    uint256 public age;\n    uint256 public heightInCms;\n    uint256 public weightInKgs;\n    address public publicAddress;\n    uint256 public noOfRecords = 0;\n    uint256 public typeOfRec = 0;\n\n    // Store structure of EHR as a mapping\n\n    struct EHR {\n        string fileLocation;\n        uint256 byDoctorID;\n        uint256 count;\n        uint256[] permissionedDoctors;\n        // uint256 permissionedDoctors;\n    }\n\n    mapping(uint256 => EHR) public healthRecords;\n\n    // Functions in Patient\n\n    constructor(\n        string memory n,\n        string memory idProof,\n        string memory addrProof,\n        uint256 a,\n        uint256 h,\n        uint256 w\n    ) public {\n        name = n;\n        identificationProof = idProof;\n        addressProof = addrProof;\n        age = a;\n        heightInCms = h;\n        weightInKgs = w;\n        publicAddress = address(this);\n    }\n\n    // Get Type\n\n    function getType() public view returns (uint256) {\n        return typeOfRec;\n    }\n\n    // Get location of file\n\n    function getFileLocation(uint256 id)\n        external\n        view\n        returns (string memory fileLoc)\n    {\n        return healthRecords[id].fileLocation;\n    }\n\n    // Check if doctor has the required permissions\n\n    function checkForPermissions(uint256 id, uint256 doctorID)\n        external\n        view\n        returns (bool ans)\n    {\n        for (\n            uint256 i = 0;\n            i < healthRecords[id].permissionedDoctors.length;\n            i++\n        ) {\n            if (healthRecords[id].permissionedDoctors[i] == doctorID) {\n                return true;\n            }\n        }\n        return false;\n    }\n\n    function getRecordCount() public view returns (uint256) {\n        return noOfRecords;\n    }\n\n    // Get no of records in that EHR\n\n    function getEHRRecordCount(uint256 EHRId) public view returns (uint256) {\n        return healthRecords[EHRId].count;\n    }\n\n    // Create a new health record\n\n    function createNewRecord(uint256 doctorID, string memory fileLocation)\n        public\n    {\n        healthRecords[noOfRecords].byDoctorID = doctorID;\n        healthRecords[noOfRecords].count = 0;\n        healthRecords[noOfRecords].permissionedDoctors.push(doctorID);\n        healthRecords[noOfRecords++].fileLocation = fileLocation;\n    }\n\n    // Fetching minimalistic details of Patient\n\n    function fetchDetailsOfPatient()\n        public\n        view\n        returns (\n            string memory,\n            string memory,\n            string memory,\n            uint256,\n            uint256,\n            uint256\n        )\n    {\n        return (\n            name,\n            identificationProof,\n            addressProof,\n            age,\n            heightInCms,\n            weightInKgs\n        );\n    }\n\n    // Fetching details of EHR given ID of EHR\n\n    function fetchDetailsOfEHR(uint256 ID)\n        public\n        view\n        returns (string memory, uint256, uint256)\n    {\n        return (\n            healthRecords[ID].fileLocation,\n            healthRecords[ID].byDoctorID,\n            healthRecords[ID].count\n        );\n    }\n\n    // Fetching doctor of EHR given ID of EHR\n\n    function fetchPermissionedDoctorOfEHR(uint256 ID)\n        public\n        view\n        returns (uint256[] memory, uint256)\n    {\n        uint256[] memory doctors = new uint256[](\n            healthRecords[ID].permissionedDoctors.length\n        );\n        for (\n            uint256 i = 0;\n            i < healthRecords[ID].permissionedDoctors.length;\n            i++\n        ) {\n            doctors[i] = healthRecords[ID].permissionedDoctors[i];\n        }\n        return (doctors, ID);\n    }\n\n    // Add new doctor in permission field\n\n    function addDoctorToEHR(uint256 doctorID, uint256 EHRID) public {\n        healthRecords[EHRID].permissionedDoctors.push(doctorID);\n        healthRecords[EHRID].count++;\n    }\n\n    // Verification function\n\n    function verifyDoctor() public view returns (uint256) {\n        return now;\n    }\n\n    // Revoke Permissions of Doctor\n\n    function revokePermissionOfDoctorOnEHR(uint256 EHRId, uint256 doctorID)\n        public\n        returns (bool)\n    {\n        // healthRecords[EHRId].permissionedDoctors[doctorID] = 0;\n\n        for (\n            uint256 i = 0;\n            i < healthRecords[EHRId].permissionedDoctors.length;\n            i++\n        ) {\n            if (healthRecords[EHRId].permissionedDoctors[i] == doctorID) {\n                healthRecords[EHRId].permissionedDoctors[i] = 0;\n                /* if (i < healthRecords[EHRId].permissionedDoctors.length - 1) {\n                    healthRecords[EHRId]\n                        .permissionedDoctors[i] = healthRecords[EHRId]\n                        .permissionedDoctors[healthRecords[EHRId]\n                        .permissionedDoctors\n                        .length - 1];\n                } else {\n                    delete healthRecords[EHRId].permissionedDoctors[i];\n                } */\n\n                return true;\n            }\n        }\n\n        return false;\n    }\n}\n\n\ncontract Consensus {\n    uint256 typeOfRec = 2;\n\n    struct instituteAddress {\n        string name;\n        bool active;\n        address medicalInstituteAddress;\n        uint256 lastModified;\n    }\n\n    // Get Type\n\n    function getType() public view returns (uint256) {\n        return typeOfRec;\n    }\n\n    // Get no of institutes\n\n    function getNoOfInstitutes() public view returns (uint256) {\n        return noOfAlloted;\n    }\n\n    // Keeps an array of all medical institutes and their last modified flag\n\n    mapping(uint256 => instituteAddress) public publicAddresses;\n    uint256 noOfAlloted = 0;\n\n    // Methods\n\n    // Registration of medical institute\n\n    function registerMedicalInstitute(string memory name, address publicAddress)\n        public\n        returns (uint256 id)\n    {\n        uint256 num = noOfAlloted;\n        publicAddresses[noOfAlloted].name = name;\n        publicAddresses[noOfAlloted].medicalInstituteAddress = publicAddress;\n        publicAddresses[noOfAlloted++].lastModified = now;\n        return num;\n    }\n\n    // Changes last modified flag of Medical Institute\n\n    function changeLastModified(uint256 time, uint256 id) public {\n        publicAddresses[id].lastModified = time;\n    }\n\n    function getAllInstitutes(uint256 i)\n        public\n        view\n        returns (instituteAddress memory)\n    {\n        return publicAddresses[i];\n    }\n\n    // Verification of OTP\n\n    function verify(uint256 num1, uint256 num2) public pure returns (bool) {\n        if (num1 == num2) {\n            return true;\n        }\n        return false;\n    }\n\n    // Deactivate Institute\n\n    function deactivateInstitute(uint256 id) public {\n        publicAddresses[id].active = false;\n    }\n}\n\n\ncontract MedicalInstitute {\n    Consensus consensusAddress;\n    bool active = true;\n    address conAddress;\n    uint256 typeOfRec = 1;\n    uint256 public myID;\n    string public myName;\n    uint256 noOfDocs = 1;\n\n    struct Doctor {\n        string name;\n        bool active;\n        string specialization;\n    }\n\n    mapping(uint256 => Doctor) public Doctors;\n\n    // Get type\n\n    function getType() public view returns (uint256) {\n        return typeOfRec;\n    }\n\n    // Constructor to get ID of medical institute\n\n    constructor(address cAddress, string memory n) public {\n        conAddress = cAddress;\n        consensusAddress = Consensus(cAddress);\n        myName = n;\n        myID = consensusAddress.registerMedicalInstitute(n, address(this));\n    }\n\n    // Register a doctor\n\n    function registerDoctor(string memory n, string memory spec)\n        public\n        returns (uint256)\n    {\n        uint256 num = noOfDocs;\n        Doctors[noOfDocs].name = n;\n        Doctors[noOfDocs].active = true;\n        Doctors[noOfDocs++].specialization = spec;\n        return num;\n    }\n\n    // Get Details of Medical Institute\n    function getDetails()\n        public\n        view\n        returns (uint256, string memory, address)\n    {\n        return (myID, myName, conAddress);\n    }\n\n    function getNoOfDocs() public view returns (uint256) {\n        return noOfDocs;\n    }\n\n    // Get details of a doctor\n\n    function getDetailsOfDoctor(uint256 _ID)\n        public\n        view\n        returns (string memory, string memory)\n    {\n        if (Doctors[_ID].active) {\n            return (Doctors[_ID].name, Doctors[_ID].specialization);\n        }\n        return (\"\", \"\");\n    }\n\n    // Check if doctor is active\n\n    function checkValidityOfDoctor(uint256 ID) public view returns (bool) {\n        return Doctors[ID].active;\n    }\n\n    // Updating Consensus after some activity\n\n    function updateLastModified() public {\n        consensusAddress.changeLastModified(now, myID);\n    }\n\n    function addPermissions(\n        address patientAddress,\n        uint256 EHRId,\n        uint256 doctorID\n    ) public {\n        Patient p = Patient(patientAddress);\n        p.addDoctorToEHR(doctorID, EHRId);\n    }\n\n    function getFileLocation(uint256 EHRId, address patientAddress)\n        public\n        view\n        returns (string memory)\n    {\n        Patient p = Patient(patientAddress);\n        return p.getFileLocation(EHRId);\n    }\n\n    function requestForAccess() public view returns (bool) {\n        uint256 OTP = now;\n        bool res = consensusAddress.verify(OTP, OTP);\n        return res;\n    }\n\n    // Revoke Doctor\n\n    function revokeDoctor(uint256 docID) public {\n        Doctors[docID].active = false;\n    }\n\n    // Revoke Medical Institute\n\n    function revokeMedicalInst() public {\n        active = false;\n    }\n\n    // Check if medical institute is active\n\n    function isActive() public view returns (bool) {\n        return active;\n    }\n\n    // Function to get ID of Doctor\n\n    function getIDOfDoctor(string memory name) public view returns (uint256) {\n        for (uint256 i = 0; i < noOfDocs; i++) {\n            if (\n                keccak256(abi.encodePacked((Doctors[i].name))) ==\n                keccak256(abi.encodePacked((name)))\n            ) {\n                return i;\n            }\n        }\n        return 0;\n    }\n}\n",
  "sourcePath": "/home/devakantarao/work/ElectRec/contracts/TAAR.sol",
  "compiler": {
    "name": "solc",
    "version": "0.5.16+commit.9c3226ce.Emscripten.clang"
  },
  "schemaVersion": "3.1.0",
  "updatedAt": "2020-04-30T04:56:04.822Z",
  "networkType": "ethereum",
  "devdoc": {
    "methods": {}
  },
  "userdoc": {
    "methods": {}
  }
}