{
  "contractName": "Patient",
  "abi": [
    {
      "inputs": [
        {
          "internalType": "string",
          "name": "n",
          "type": "string"
        },
        {
          "internalType": "string",
          "name": "idProof",
          "type": "string"
        },
        {
          "internalType": "string",
          "name": "addrProof",
          "type": "string"
        },
        {
          "internalType": "uint256",
          "name": "a",
          "type": "uint256"
        },
        {
          "internalType": "uint256",
          "name": "h",
          "type": "uint256"
        },
        {
          "internalType": "uint256",
          "name": "w",
          "type": "uint256"
        },
        {
          "internalType": "string",
          "name": "mob",
          "type": "string"
        },
        {
          "internalType": "string",
          "name": "email",
          "type": "string"
        }
      ],
      "payable": false,
      "stateMutability": "nonpayable",
      "type": "constructor"
    },
    {
      "constant": true,
      "inputs": [],
      "name": "addressProof",
      "outputs": [
        {
          "internalType": "string",
          "name": "",
          "type": "string"
        }
      ],
      "payable": false,
      "stateMutability": "view",
      "type": "function"
    },
    {
      "constant": true,
      "inputs": [],
      "name": "age",
      "outputs": [
        {
          "internalType": "uint256",
          "name": "",
          "type": "uint256"
        }
      ],
      "payable": false,
      "stateMutability": "view",
      "type": "function"
    },
    {
      "constant": true,
      "inputs": [],
      "name": "emailAddress",
      "outputs": [
        {
          "internalType": "string",
          "name": "",
          "type": "string"
        }
      ],
      "payable": false,
      "stateMutability": "view",
      "type": "function"
    },
    {
      "constant": true,
      "inputs": [
        {
          "internalType": "uint256",
          "name": "",
          "type": "uint256"
        }
      ],
      "name": "healthRecords",
      "outputs": [
        {
          "internalType": "string",
          "name": "fileLocation",
          "type": "string"
        },
        {
          "internalType": "uint256",
          "name": "byDoctorID",
          "type": "uint256"
        },
        {
          "internalType": "uint256",
          "name": "count",
          "type": "uint256"
        }
      ],
      "payable": false,
      "stateMutability": "view",
      "type": "function"
    },
    {
      "constant": true,
      "inputs": [],
      "name": "heightInCms",
      "outputs": [
        {
          "internalType": "uint256",
          "name": "",
          "type": "uint256"
        }
      ],
      "payable": false,
      "stateMutability": "view",
      "type": "function"
    },
    {
      "constant": true,
      "inputs": [],
      "name": "identificationProof",
      "outputs": [
        {
          "internalType": "string",
          "name": "",
          "type": "string"
        }
      ],
      "payable": false,
      "stateMutability": "view",
      "type": "function"
    },
    {
      "constant": true,
      "inputs": [],
      "name": "mobileNumber",
      "outputs": [
        {
          "internalType": "string",
          "name": "",
          "type": "string"
        }
      ],
      "payable": false,
      "stateMutability": "view",
      "type": "function"
    },
    {
      "constant": true,
      "inputs": [],
      "name": "name",
      "outputs": [
        {
          "internalType": "string",
          "name": "",
          "type": "string"
        }
      ],
      "payable": false,
      "stateMutability": "view",
      "type": "function"
    },
    {
      "constant": true,
      "inputs": [],
      "name": "noOfRecords",
      "outputs": [
        {
          "internalType": "uint256",
          "name": "",
          "type": "uint256"
        }
      ],
      "payable": false,
      "stateMutability": "view",
      "type": "function"
    },
    {
      "constant": true,
      "inputs": [],
      "name": "publicAddress",
      "outputs": [
        {
          "internalType": "address",
          "name": "",
          "type": "address"
        }
      ],
      "payable": false,
      "stateMutability": "view",
      "type": "function"
    },
    {
      "constant": true,
      "inputs": [],
      "name": "typeOfRec",
      "outputs": [
        {
          "internalType": "uint256",
          "name": "",
          "type": "uint256"
        }
      ],
      "payable": false,
      "stateMutability": "view",
      "type": "function"
    },
    {
      "constant": true,
      "inputs": [],
      "name": "weightInKgs",
      "outputs": [
        {
          "internalType": "uint256",
          "name": "",
          "type": "uint256"
        }
      ],
      "payable": false,
      "stateMutability": "view",
      "type": "function"
    },
    {
      "constant": true,
      "inputs": [],
      "name": "getType",
      "outputs": [
        {
          "internalType": "uint256",
          "name": "",
          "type": "uint256"
        }
      ],
      "payable": false,
      "stateMutability": "view",
      "type": "function"
    },
    {
      "constant": true,
      "inputs": [
        {
          "internalType": "uint256",
          "name": "id",
          "type": "uint256"
        }
      ],
      "name": "getFileLocation",
      "outputs": [
        {
          "internalType": "string",
          "name": "fileLoc",
          "type": "string"
        }
      ],
      "payable": false,
      "stateMutability": "view",
      "type": "function"
    },
    {
      "constant": true,
      "inputs": [
        {
          "internalType": "uint256",
          "name": "id",
          "type": "uint256"
        },
        {
          "internalType": "uint256",
          "name": "doctorID",
          "type": "uint256"
        }
      ],
      "name": "checkForPermissions",
      "outputs": [
        {
          "internalType": "bool",
          "name": "ans",
          "type": "bool"
        }
      ],
      "payable": false,
      "stateMutability": "view",
      "type": "function"
    },
    {
      "constant": true,
      "inputs": [],
      "name": "getRecordCount",
      "outputs": [
        {
          "internalType": "uint256",
          "name": "",
          "type": "uint256"
        }
      ],
      "payable": false,
      "stateMutability": "view",
      "type": "function"
    },
    {
      "constant": true,
      "inputs": [
        {
          "internalType": "uint256",
          "name": "EHRId",
          "type": "uint256"
        }
      ],
      "name": "getEHRRecordCount",
      "outputs": [
        {
          "internalType": "uint256",
          "name": "",
          "type": "uint256"
        }
      ],
      "payable": false,
      "stateMutability": "view",
      "type": "function"
    },
    {
      "constant": false,
      "inputs": [
        {
          "internalType": "uint256",
          "name": "doctorID",
          "type": "uint256"
        },
        {
          "internalType": "string",
          "name": "fileLocation",
          "type": "string"
        }
      ],
      "name": "createNewRecord",
      "outputs": [],
      "payable": false,
      "stateMutability": "nonpayable",
      "type": "function"
    },
    {
      "constant": true,
      "inputs": [],
      "name": "fetchDetailsOfPatient",
      "outputs": [
        {
          "internalType": "string",
          "name": "",
          "type": "string"
        },
        {
          "internalType": "string",
          "name": "",
          "type": "string"
        },
        {
          "internalType": "string",
          "name": "",
          "type": "string"
        },
        {
          "internalType": "uint256",
          "name": "",
          "type": "uint256"
        },
        {
          "internalType": "uint256",
          "name": "",
          "type": "uint256"
        },
        {
          "internalType": "uint256",
          "name": "",
          "type": "uint256"
        },
        {
          "internalType": "string",
          "name": "",
          "type": "string"
        },
        {
          "internalType": "string",
          "name": "",
          "type": "string"
        }
      ],
      "payable": false,
      "stateMutability": "view",
      "type": "function"
    },
    {
      "constant": true,
      "inputs": [
        {
          "internalType": "uint256",
          "name": "ID",
          "type": "uint256"
        }
      ],
      "name": "fetchDetailsOfEHR",
      "outputs": [
        {
          "internalType": "string",
          "name": "",
          "type": "string"
        },
        {
          "internalType": "uint256",
          "name": "",
          "type": "uint256"
        },
        {
          "internalType": "uint256",
          "name": "",
          "type": "uint256"
        },
        {
          "internalType": "uint256[]",
          "name": "",
          "type": "uint256[]"
        }
      ],
      "payable": false,
      "stateMutability": "view",
      "type": "function"
    },
    {
      "constant": true,
      "inputs": [
        {
          "internalType": "uint256",
          "name": "ID",
          "type": "uint256"
        }
      ],
      "name": "fetchPermissionedDoctorOfEHR",
      "outputs": [
        {
          "internalType": "uint256[]",
          "name": "",
          "type": "uint256[]"
        },
        {
          "internalType": "uint256",
          "name": "",
          "type": "uint256"
        }
      ],
      "payable": false,
      "stateMutability": "view",
      "type": "function"
    },
    {
      "constant": false,
      "inputs": [
        {
          "internalType": "uint256",
          "name": "doctorID",
          "type": "uint256"
        },
        {
          "internalType": "uint256",
          "name": "EHRID",
          "type": "uint256"
        }
      ],
      "name": "addDoctorToEHR",
      "outputs": [],
      "payable": false,
      "stateMutability": "nonpayable",
      "type": "function"
    },
    {
      "constant": true,
      "inputs": [],
      "name": "verifyDoctor",
      "outputs": [
        {
          "internalType": "uint256",
          "name": "",
          "type": "uint256"
        }
      ],
      "payable": false,
      "stateMutability": "view",
      "type": "function"
    },
    {
      "constant": false,
      "inputs": [
        {
          "internalType": "uint256",
          "name": "EHRId",
          "type": "uint256"
        },
        {
          "internalType": "uint256",
          "name": "doctorID",
          "type": "uint256"
        }
      ],
      "name": "revokePermissionOfDoctorOnEHR",
      "outputs": [
        {
          "internalType": "bool",
          "name": "",
          "type": "bool"
        }
      ],
      "payable": false,
      "stateMutability": "nonpayable",
      "type": "function"
    },
    {
      "constant": false,
      "inputs": [
        {
          "internalType": "uint256",
          "name": "ID",
          "type": "uint256"
        }
      ],
      "name": "removeEHR",
      "outputs": [],
      "payable": false,
      "stateMutability": "nonpayable",
      "type": "function"
    }
  ],
  "bytecode": "0x6080604052600060075560006008553480156200001b57600080fd5b5060405162001ce038038062001ce0833981810160405262000041919081019062000244565b87600090805190602001906200005992919062000122565b5086600190805190602001906200007292919062000122565b5085600290805190602001906200008b92919062000122565b508460038190555083600481905550826005819055508160099080519060200190620000b992919062000122565b5080600a9080519060200190620000d292919062000122565b5030600660006101000a81548173ffffffffffffffffffffffffffffffffffffffff021916908373ffffffffffffffffffffffffffffffffffffffff160217905550505050505050505062000439565b828054600181600116156101000203166002900490600052602060002090601f016020900481019282601f106200016557805160ff191683800117855562000196565b8280016001018555821562000196579182015b828111156200019557825182559160200191906001019062000178565b5b509050620001a59190620001a9565b5090565b620001ce91905b80821115620001ca576000816000905550600101620001b0565b5090565b90565b600082601f830112620001e357600080fd5b8151620001fa620001f482620003b2565b62000384565b915080825260208301602083018583830111156200021757600080fd5b62000224838284620003e9565b50505092915050565b6000815190506200023e816200041f565b92915050565b600080600080600080600080610100898b0312156200026257600080fd5b600089015167ffffffffffffffff8111156200027d57600080fd5b6200028b8b828c01620001d1565b985050602089015167ffffffffffffffff811115620002a957600080fd5b620002b78b828c01620001d1565b975050604089015167ffffffffffffffff811115620002d557600080fd5b620002e38b828c01620001d1565b9650506060620002f68b828c016200022d565b9550506080620003098b828c016200022d565b94505060a06200031c8b828c016200022d565b93505060c089015167ffffffffffffffff8111156200033a57600080fd5b620003488b828c01620001d1565b92505060e089015167ffffffffffffffff8111156200036657600080fd5b620003748b828c01620001d1565b9150509295985092959890939650565b6000604051905081810181811067ffffffffffffffff82111715620003a857600080fd5b8060405250919050565b600067ffffffffffffffff821115620003ca57600080fd5b601f19601f8301169050602081019050919050565b6000819050919050565b60005b8381101562000409578082015181840152602081019050620003ec565b8381111562000419576000848401525b50505050565b6200042a81620003df565b81146200043657600080fd5b50565b61189780620004496000396000f3fe608060405234801561001057600080fd5b50600436106101735760003560e01c8063850aaa78116100de578063c3f9c6c411610097578063e09ebd3111610071578063e09ebd3114610475578063e27c4bfc14610493578063ee51ae55146104af578063f676f331146104cd57610173565b8063c3f9c6c41461041d578063ca267f2814610439578063d5283e9a1461045757610173565b8063850aaa781461033157806395fcd9dd1461034f5780639fcddf861461036d578063a5bfe0f01461039d578063aada53a7146103bb578063b665c0d3146103eb57610173565b8063262a9dff11610130578063262a9dff14610266578063371c93b41461028457806357bb0829146102b45780636270fcef146102d95780637056784a146102f75780637316c9111461031557610173565b806306fdde03146101785780630a9edf4614610196578063118f93f5146101c7578063158cb536146101e557806315dae03e146102155780632560786014610233575b600080fd5b6101806104eb565b60405161018d9190611558565b60405180910390f35b6101b060048036036101ab9190810190611315565b610589565b6040516101be92919061150d565b60405180910390f35b6101cf61065f565b6040516101dc9190611558565b60405180910390f35b6101ff60048036036101fa9190810190611315565b6106fd565b60405161020c91906116ce565b60405180910390f35b61021d61071d565b60405161022a91906116ce565b60405180910390f35b61024d60048036036102489190810190611315565b610727565b60405161025d949392919061163d565b60405180910390f35b61026e610885565b60405161027b91906116ce565b60405180910390f35b61029e60048036036102999190810190611315565b61088b565b6040516102ab919061157a565b60405180910390f35b6102bc610943565b6040516102d098979695949392919061159c565b60405180910390f35b6102e1610c89565b6040516102ee91906116ce565b60405180910390f35b6102ff610c91565b60405161030c91906116ce565b60405180910390f35b61032f600480360361032a9190810190611315565b610c97565b005b610339610cd4565b6040516103469190611558565b60405180910390f35b610357610d72565b60405161036491906116ce565b60405180910390f35b61038760048036036103829190810190611392565b610d78565b604051610394919061153d565b60405180910390f35b6103a5610e28565b6040516103b291906116ce565b60405180910390f35b6103d560048036036103d09190810190611392565b610e2e565b6040516103e2919061153d565b60405180910390f35b61040560048036036104009190810190611315565b610ead565b60405161041493929190611690565b60405180910390f35b61043760048036036104329190810190611392565b610f6f565b005b610441610fd9565b60405161044e91906116ce565b60405180910390f35b61045f610fe3565b60405161046c9190611558565b60405180910390f35b61047d611081565b60405161048a91906116ce565b60405180910390f35b6104ad60048036036104a8919081019061133e565b611087565b005b6104b7611143565b6040516104c49190611558565b60405180910390f35b6104d56111e1565b6040516104e291906114f2565b60405180910390f35b60008054600181600116156101000203166002900480601f0160208091040260200160405190810160405280929190818152602001828054600181600116156101000203166002900480156105815780601f1061055657610100808354040283529160200191610581565b820191906000526020600020905b81548152906001019060200180831161056457829003601f168201915b505050505081565b606060006060600b6000858152602001908152602001600020600301805490506040519080825280602002602001820160405280156105d75781602001602082028038833980820191505090505b50905060008090505b600b60008681526020019081526020016000206003018054905081101561065257600b6000868152602001908152602001600020600301818154811061062257fe5b906000526020600020015482828151811061063957fe5b60200260200101818152505080806001019150506105e0565b5080849250925050915091565b60098054600181600116156101000203166002900480601f0160208091040260200160405190810160405280929190818152602001828054600181600116156101000203166002900480156106f55780601f106106ca576101008083540402835291602001916106f5565b820191906000526020600020905b8154815290600101906020018083116106d857829003601f168201915b505050505081565b6000600b6000838152602001908152602001600020600201549050919050565b6000600854905090565b60606000806060600b6000868152602001908152602001600020600001600b600087815260200190815260200160002060010154600b600088815260200190815260200160002060020154600b6000898152602001908152602001600020600301838054600181600116156101000203166002900480601f01602080910402602001604051908101604052809291908181526020018280546001816001161561010002031660029004801561081d5780601f106107f25761010080835404028352916020019161081d565b820191906000526020600020905b81548152906001019060200180831161080057829003601f168201915b505050505093508080548060200260200160405190810160405280929190818152602001828054801561086f57602002820191906000526020600020905b81548152602001906001019080831161085b575b5050505050905093509350935093509193509193565b60035481565b6060600b60008381526020019081526020016000206000018054600181600116156101000203166002900480601f0160208091040260200160405190810160405280929190818152602001828054600181600116156101000203166002900480156109375780601f1061090c57610100808354040283529160200191610937565b820191906000526020600020905b81548152906001019060200180831161091a57829003601f168201915b50505050509050919050565b606080606060008060006060806000600160026003546004546005546009600a878054600181600116156101000203166002900480601f0160208091040260200160405190810160405280929190818152602001828054600181600116156101000203166002900480156109f85780601f106109cd576101008083540402835291602001916109f8565b820191906000526020600020905b8154815290600101906020018083116109db57829003601f168201915b50505050509750868054600181600116156101000203166002900480601f016020809104026020016040519081016040528092919081815260200182805460018160011615610100020316600290048015610a945780601f10610a6957610100808354040283529160200191610a94565b820191906000526020600020905b815481529060010190602001808311610a7757829003601f168201915b50505050509650858054600181600116156101000203166002900480601f016020809104026020016040519081016040528092919081815260200182805460018160011615610100020316600290048015610b305780601f10610b0557610100808354040283529160200191610b30565b820191906000526020600020905b815481529060010190602001808311610b1357829003601f168201915b50505050509550818054600181600116156101000203166002900480601f016020809104026020016040519081016040528092919081815260200182805460018160011615610100020316600290048015610bcc5780601f10610ba157610100808354040283529160200191610bcc565b820191906000526020600020905b815481529060010190602001808311610baf57829003601f168201915b50505050509150808054600181600116156101000203166002900480601f016020809104026020016040519081016040528092919081815260200182805460018160011615610100020316600290048015610c685780601f10610c3d57610100808354040283529160200191610c68565b820191906000526020600020905b815481529060010190602001808311610c4b57829003601f168201915b50505050509050975097509750975097509750975097509091929394959697565b600042905090565b60045481565b60405180602001604052806000815250600b60008381526020019081526020016000206000019080519060200190610cd0929190611207565b5050565b60028054600181600116156101000203166002900480601f016020809104026020016040519081016040528092919081815260200182805460018160011615610100020316600290048015610d6a5780601f10610d3f57610100808354040283529160200191610d6a565b820191906000526020600020905b815481529060010190602001808311610d4d57829003601f168201915b505050505081565b60085481565b600080600090505b600b600085815260200190815260200160002060030180549050811015610e1c5782600b60008681526020019081526020016000206003018281548110610dc357fe5b90600052602060002001541415610e0f576000600b60008681526020019081526020016000206003018281548110610df757fe5b90600052602060002001819055506001915050610e22565b8080600101915050610d80565b50600090505b92915050565b60055481565b600080600090505b600b600085815260200190815260200160002060030180549050811015610ea15782600b60008681526020019081526020016000206003018281548110610e7957fe5b90600052602060002001541415610e94576001915050610ea7565b8080600101915050610e36565b50600090505b92915050565b600b602052806000526040600020600091509050806000018054600181600116156101000203166002900480601f016020809104026020016040519081016040528092919081815260200182805460018160011615610100020316600290048015610f595780601f10610f2e57610100808354040283529160200191610f59565b820191906000526020600020905b815481529060010190602001808311610f3c57829003601f168201915b5050505050908060010154908060020154905083565b600b6000828152602001908152602001600020600301829080600181540180825580915050906001820390600052602060002001600090919290919091505550600b6000828152602001908152602001600020600201600081548092919060010191905055505050565b6000600754905090565b60018054600181600116156101000203166002900480601f0160208091040260200160405190810160405280929190818152602001828054600181600116156101000203166002900480156110795780601f1061104e57610100808354040283529160200191611079565b820191906000526020600020905b81548152906001019060200180831161105c57829003601f168201915b505050505081565b60075481565b81600b60006007548152602001908152602001600020600101819055506000600b6000600754815260200190815260200160002060020181905550600b6000600754815260200190815260200160002060030182908060018154018082558091505090600182039060005260206000200160009091929091909150555080600b600060076000815480929190600101919050558152602001908152602001600020600001908051906020019061113e929190611207565b505050565b600a8054600181600116156101000203166002900480601f0160208091040260200160405190810160405280929190818152602001828054600181600116156101000203166002900480156111d95780601f106111ae576101008083540402835291602001916111d9565b820191906000526020600020905b8154815290600101906020018083116111bc57829003601f168201915b505050505081565b600660009054906101000a900473ffffffffffffffffffffffffffffffffffffffff1681565b828054600181600116156101000203166002900490600052602060002090601f016020900481019282601f1061124857805160ff1916838001178555611276565b82800160010185558215611276579182015b8281111561127557825182559160200191906001019061125a565b5b5090506112839190611287565b5090565b6112a991905b808211156112a557600081600090555060010161128d565b5090565b90565b600082601f8301126112bd57600080fd5b81356112d06112cb82611716565b6116e9565b915080825260208301602083018583830111156112ec57600080fd5b6112f78382846117ea565b50505092915050565b60008135905061130f8161183d565b92915050565b60006020828403121561132757600080fd5b600061133584828501611300565b91505092915050565b6000806040838503121561135157600080fd5b600061135f85828601611300565b925050602083013567ffffffffffffffff81111561137c57600080fd5b611388858286016112ac565b9150509250929050565b600080604083850312156113a557600080fd5b60006113b385828601611300565b92505060206113c485828601611300565b9150509250929050565b60006113da83836114d4565b60208301905092915050565b6113ef816117a2565b82525050565b600061140082611752565b61140a8185611780565b935061141583611742565b8060005b8381101561144657815161142d88826113ce565b975061143883611773565b925050600181019050611419565b5085935050505092915050565b61145c816117b4565b82525050565b600061146d82611768565b6114778185611791565b93506114878185602086016117f9565b6114908161182c565b840191505092915050565b60006114a68261175d565b6114b08185611791565b93506114c08185602086016117f9565b6114c98161182c565b840191505092915050565b6114dd816117e0565b82525050565b6114ec816117e0565b82525050565b600060208201905061150760008301846113e6565b92915050565b6000604082019050818103600083015261152781856113f5565b905061153660208301846114e3565b9392505050565b60006020820190506115526000830184611453565b92915050565b60006020820190508181036000830152611572818461149b565b905092915050565b600060208201905081810360008301526115948184611462565b905092915050565b60006101008201905081810360008301526115b7818b611462565b905081810360208301526115cb818a611462565b905081810360408301526115df8189611462565b90506115ee60608301886114e3565b6115fb60808301876114e3565b61160860a08301866114e3565b81810360c083015261161a8185611462565b905081810360e083015261162e8184611462565b90509998505050505050505050565b600060808201905081810360008301526116578187611462565b905061166660208301866114e3565b61167360408301856114e3565b818103606083015261168581846113f5565b905095945050505050565b600060608201905081810360008301526116aa818661149b565b90506116b960208301856114e3565b6116c660408301846114e3565b949350505050565b60006020820190506116e360008301846114e3565b92915050565b6000604051905081810181811067ffffffffffffffff8211171561170c57600080fd5b8060405250919050565b600067ffffffffffffffff82111561172d57600080fd5b601f19601f8301169050602081019050919050565b6000819050602082019050919050565b600081519050919050565b600081519050919050565b600081519050919050565b6000602082019050919050565b600082825260208201905092915050565b600082825260208201905092915050565b60006117ad826117c0565b9050919050565b60008115159050919050565b600073ffffffffffffffffffffffffffffffffffffffff82169050919050565b6000819050919050565b82818337600083830152505050565b60005b838110156118175780820151818401526020810190506117fc565b83811115611826576000848401525b50505050565b6000601f19601f8301169050919050565b611846816117e0565b811461185157600080fd5b5056fea365627a7a7231582045c85fb17c4cbab6f25b641573e3b7963e1f499d02a13e59e1bfc740a2f08bf86c6578706572696d656e74616cf564736f6c63430005100040",
  "source": "pragma solidity >=0.4.25;\npragma experimental ABIEncoderV2;\n\n\ncontract Patient {\n    // Personal Details - Minimalistic details required for creating block\n\n    string public name;\n    string public identificationProof;\n    string public addressProof;\n    uint256 public age;\n    uint256 public heightInCms;\n    uint256 public weightInKgs;\n    address public publicAddress;\n    uint256 public noOfRecords = 0;\n    uint256 public typeOfRec = 0;\n    string public mobileNumber;\n    string public emailAddress;\n\n    // Store structure of EHR as a mapping\n\n    struct EHR {\n        string fileLocation;\n        uint256 byDoctorID;\n        uint256 count;\n        uint256[] permissionedDoctors;\n        // uint256 permissionedDoctors;\n    }\n\n    mapping(uint256 => EHR) public healthRecords;\n\n    // Functions in Patient\n\n    constructor(\n        string memory n,\n        string memory idProof,\n        string memory addrProof,\n        uint256 a,\n        uint256 h,\n        uint256 w,\n        string memory mob,\n        string memory email\n    ) public {\n        name = n;\n        identificationProof = idProof;\n        addressProof = addrProof;\n        age = a;\n        heightInCms = h;\n        weightInKgs = w;\n        mobileNumber = mob;\n        emailAddress = email;\n        publicAddress = address(this);\n    }\n\n    // Get Type\n\n    function getType() public view returns (uint256) {\n        return typeOfRec;\n    }\n\n    // Get location of file\n\n    function getFileLocation(uint256 id)\n        external\n        view\n        returns (string memory fileLoc)\n    {\n        return healthRecords[id].fileLocation;\n    }\n\n    // Check if doctor has the required permissions\n\n    function checkForPermissions(uint256 id, uint256 doctorID)\n        external\n        view\n        returns (bool ans)\n    {\n        for (\n            uint256 i = 0;\n            i < healthRecords[id].permissionedDoctors.length;\n            i++\n        ) {\n            if (healthRecords[id].permissionedDoctors[i] == doctorID) {\n                return true;\n            }\n        }\n        return false;\n    }\n\n    function getRecordCount() public view returns (uint256) {\n        return noOfRecords;\n    }\n\n    // Get no of records in that EHR\n\n    function getEHRRecordCount(uint256 EHRId) public view returns (uint256) {\n        return healthRecords[EHRId].count;\n    }\n\n    // Create a new health record\n\n    function createNewRecord(uint256 doctorID, string memory fileLocation)\n        public\n    {\n        healthRecords[noOfRecords].byDoctorID = doctorID;\n        healthRecords[noOfRecords].count = 0;\n        healthRecords[noOfRecords].permissionedDoctors.push(doctorID);\n        healthRecords[noOfRecords++].fileLocation = fileLocation;\n    }\n\n    // Fetching minimalistic details of Patient\n\n    function fetchDetailsOfPatient()\n        public\n        view\n        returns (\n            string memory,\n            string memory,\n            string memory,\n            uint256,\n            uint256,\n            uint256,\n            string memory,\n            string memory\n        )\n    {\n        return (\n            name,\n            identificationProof,\n            addressProof,\n            age,\n            heightInCms,\n            weightInKgs,\n            mobileNumber,\n            emailAddress\n        );\n    }\n\n    // Fetching details of EHR given ID of EHR\n\n    function fetchDetailsOfEHR(uint256 ID)\n        public\n        view\n        returns (string memory, uint256, uint256, uint256[] memory)\n    {\n        return (\n            healthRecords[ID].fileLocation,\n            healthRecords[ID].byDoctorID,\n            healthRecords[ID].count,\n            healthRecords[ID].permissionedDoctors\n        );\n    }\n\n    // Fetching doctor of EHR given ID of EHR\n\n    function fetchPermissionedDoctorOfEHR(uint256 ID)\n        public\n        view\n        returns (uint256[] memory, uint256)\n    {\n        uint256[] memory doctors = new uint256[](\n            healthRecords[ID].permissionedDoctors.length\n        );\n        for (\n            uint256 i = 0;\n            i < healthRecords[ID].permissionedDoctors.length;\n            i++\n        ) {\n            doctors[i] = healthRecords[ID].permissionedDoctors[i];\n        }\n        return (doctors, ID);\n    }\n\n    // Add new doctor in permission field\n\n    function addDoctorToEHR(uint256 doctorID, uint256 EHRID) public {\n        healthRecords[EHRID].permissionedDoctors.push(doctorID);\n        healthRecords[EHRID].count++;\n    }\n\n    // Verification function\n\n    function verifyDoctor() public view returns (uint256) {\n        return now;\n    }\n\n    // Revoke Permissions of Doctor\n\n    function revokePermissionOfDoctorOnEHR(uint256 EHRId, uint256 doctorID)\n        public\n        returns (bool)\n    {\n        // healthRecords[EHRId].permissionedDoctors[doctorID] = 0;\n\n        for (\n            uint256 i = 0;\n            i < healthRecords[EHRId].permissionedDoctors.length;\n            i++\n        ) {\n            if (healthRecords[EHRId].permissionedDoctors[i] == doctorID) {\n                healthRecords[EHRId].permissionedDoctors[i] = 0;\n                /* if (i < healthRecords[EHRId].permissionedDoctors.length - 1) {\n                    healthRecords[EHRId]\n                        .permissionedDoctors[i] = healthRecords[EHRId]\n                        .permissionedDoctors[healthRecords[EHRId]\n                        .permissionedDoctors\n                        .length - 1];\n                } else {\n                    delete healthRecords[EHRId].permissionedDoctors[i];\n                } */\n\n                return true;\n            }\n        }\n\n        return false;\n    }\n\n    // Remove EHR\n\n    function removeEHR(uint256 ID) public {\n        healthRecords[ID].fileLocation = \"\";\n    }\n}\n\n\ncontract Consensus {\n    uint256 typeOfRec = 2;\n\n    struct instituteAddress {\n        string name;\n        bool active;\n        address medicalInstituteAddress;\n        uint256 lastModified;\n    }\n\n    // Get Type\n\n    function getType() public view returns (uint256) {\n        return typeOfRec;\n    }\n\n    // Get no of institutes\n\n    function getNoOfInstitutes() public view returns (uint256) {\n        return noOfAlloted;\n    }\n\n    // Keeps an array of all medical institutes and their last modified flag\n\n    mapping(uint256 => instituteAddress) public publicAddresses;\n    uint256 noOfAlloted = 0;\n\n    // Methods\n\n    // Registration of medical institute\n\n    function registerMedicalInstitute(string memory name, address publicAddress)\n        public\n        returns (uint256 id)\n    {\n        uint256 num = noOfAlloted;\n        publicAddresses[noOfAlloted].name = name;\n        publicAddresses[noOfAlloted].medicalInstituteAddress = publicAddress;\n        publicAddresses[noOfAlloted++].lastModified = now;\n        return num;\n    }\n\n    // Changes last modified flag of Medical Institute\n\n    function changeLastModified(uint256 time, uint256 id) public {\n        publicAddresses[id].lastModified = time;\n    }\n\n    function getAllInstitutes(uint256 i)\n        public\n        view\n        returns (instituteAddress memory)\n    {\n        return publicAddresses[i];\n    }\n\n    // Verification of OTP\n\n    function verify(uint256 num1, uint256 num2) public pure returns (bool) {\n        if (num1 == num2) {\n            return true;\n        }\n        return false;\n    }\n\n    // Deactivate Institute\n\n    function deactivateInstitute(uint256 id) public {\n        publicAddresses[id].active = false;\n    }\n}\n\n\ncontract MedicalInstitute {\n    Consensus consensusAddress;\n    bool active = true;\n    address conAddress;\n    uint256 typeOfRec = 1;\n    uint256 public myID;\n    string public myName;\n    uint256 noOfDocs = 1;\n\n    struct Doctor {\n        string name;\n        bool active;\n        string specialization;\n    }\n\n    mapping(uint256 => Doctor) public Doctors;\n\n    // Get type\n\n    function getType() public view returns (uint256) {\n        return typeOfRec;\n    }\n\n    // Constructor to get ID of medical institute\n\n    constructor(address cAddress, string memory n) public {\n        conAddress = cAddress;\n        consensusAddress = Consensus(cAddress);\n        myName = n;\n        myID = consensusAddress.registerMedicalInstitute(n, address(this));\n    }\n\n    // Register a doctor\n\n    function registerDoctor(string memory n, string memory spec)\n        public\n        returns (uint256)\n    {\n        uint256 num = noOfDocs;\n        Doctors[noOfDocs].name = n;\n        Doctors[noOfDocs].active = true;\n        Doctors[noOfDocs++].specialization = spec;\n        return num;\n    }\n\n    // Get Details of Medical Institute\n    function getDetails()\n        public\n        view\n        returns (uint256, string memory, address)\n    {\n        return (myID, myName, conAddress);\n    }\n\n    function getNoOfDocs() public view returns (uint256) {\n        return noOfDocs;\n    }\n\n    // Get details of a doctor\n\n    function getDetailsOfDoctor(uint256 _ID)\n        public\n        view\n        returns (string memory, string memory)\n    {\n        if (Doctors[_ID].active) {\n            return (Doctors[_ID].name, Doctors[_ID].specialization);\n        }\n        return (\"\", \"\");\n    }\n\n    // Check if doctor is active\n\n    function checkValidityOfDoctor(uint256 ID) public view returns (bool) {\n        return Doctors[ID].active;\n    }\n\n    // Updating Consensus after some activity\n\n    function updateLastModified() public {\n        consensusAddress.changeLastModified(now, myID);\n    }\n\n    function addPermissions(\n        address patientAddress,\n        uint256 EHRId,\n        uint256 doctorID\n    ) public {\n        Patient p = Patient(patientAddress);\n        p.addDoctorToEHR(doctorID, EHRId);\n    }\n\n    function getFileLocation(uint256 EHRId, address patientAddress)\n        public\n        view\n        returns (string memory)\n    {\n        Patient p = Patient(patientAddress);\n        return p.getFileLocation(EHRId);\n    }\n\n    function requestForAccess() public view returns (bool) {\n        uint256 OTP = now;\n        bool res = consensusAddress.verify(OTP, OTP);\n        return res;\n    }\n\n    // Revoke Doctor\n\n    function revokeDoctor(uint256 docID) public {\n        Doctors[docID].active = false;\n    }\n\n    // Revoke Medical Institute\n\n    function revokeMedicalInst() public {\n        active = false;\n    }\n\n    // Check if medical institute is active\n\n    function isActive() public view returns (bool) {\n        return active;\n    }\n\n    // Function to get ID of Doctor\n\n    function getIDOfDoctor(string memory name) public view returns (uint256) {\n        for (uint256 i = 0; i < noOfDocs; i++) {\n            if (\n                keccak256(abi.encodePacked((Doctors[i].name))) ==\n                keccak256(abi.encodePacked((name)))\n            ) {\n                return i;\n            }\n        }\n        return 0;\n    }\n}\n",
  "sourcePath": "/home/badminton-bhivpa/Education/EDI/workspace/contracts/TAAR.sol",
  "compiler": {
    "name": "solc",
    "version": "0.5.16+commit.9c3226ce.Emscripten.clang"
  },
  "schemaVersion": "3.1.0",
  "updatedAt": "2020-04-30T08:16:33.226Z",
  "networkType": "ethereum",
  "devdoc": {
    "methods": {}
  },
  "userdoc": {
    "methods": {}
  }
}